{
  "contractName": "Company",
  "abi": [
    {
      "inputs": [
        {
          "internalType": "address",
          "name": "_aggregatorV3Interface",
          "type": "address"
        },
        {
          "internalType": "address",
          "name": "tokenAddress",
          "type": "address"
        },
        {
          "internalType": "string",
          "name": "_companyName",
          "type": "string"
        },
        {
          "internalType": "string",
          "name": "_companyType",
          "type": "string"
        },
        {
          "internalType": "address",
          "name": "_companyOwner",
          "type": "address"
        },
        {
          "internalType": "string",
          "name": "_country",
          "type": "string"
        },
        {
          "internalType": "uint256",
          "name": "_tokenPrice",
          "type": "uint256"
        },
        {
          "internalType": "uint256",
          "name": "_carbonCreditsEmmiteds",
          "type": "uint256"
        },
        {
          "internalType": "string",
          "name": "_logoURI",
          "type": "string"
        }
      ],
      "stateMutability": "nonpayable",
      "type": "constructor"
    },
    {
      "inputs": [],
      "name": "allowance",
      "outputs": [
        {
          "internalType": "uint256",
          "name": "",
          "type": "uint256"
        }
      ],
      "stateMutability": "view",
      "type": "function"
    },
    {
      "inputs": [],
      "name": "carbonCreditsEmmiteds",
      "outputs": [
        {
          "internalType": "uint256",
          "name": "",
          "type": "uint256"
        }
      ],
      "stateMutability": "view",
      "type": "function"
    },
    {
      "inputs": [],
      "name": "companyName",
      "outputs": [
        {
          "internalType": "string",
          "name": "",
          "type": "string"
        }
      ],
      "stateMutability": "view",
      "type": "function"
    },
    {
      "inputs": [],
      "name": "companyOwner",
      "outputs": [
        {
          "internalType": "address",
          "name": "",
          "type": "address"
        }
      ],
      "stateMutability": "view",
      "type": "function"
    },
    {
      "inputs": [],
      "name": "companyType",
      "outputs": [
        {
          "internalType": "string",
          "name": "",
          "type": "string"
        }
      ],
      "stateMutability": "view",
      "type": "function"
    },
    {
      "inputs": [],
      "name": "country",
      "outputs": [
        {
          "internalType": "string",
          "name": "",
          "type": "string"
        }
      ],
      "stateMutability": "view",
      "type": "function"
    },
    {
      "inputs": [],
      "name": "logoURI",
      "outputs": [
        {
          "internalType": "string",
          "name": "",
          "type": "string"
        }
      ],
      "stateMutability": "view",
      "type": "function"
    },
    {
      "inputs": [],
      "name": "token",
      "outputs": [
        {
          "internalType": "contract TokenInterface",
          "name": "",
          "type": "address"
        }
      ],
      "stateMutability": "view",
      "type": "function"
    },
    {
      "inputs": [],
      "name": "tokenPrice",
      "outputs": [
        {
          "internalType": "uint256",
          "name": "",
          "type": "uint256"
        }
      ],
      "stateMutability": "view",
      "type": "function"
    },
    {
      "stateMutability": "payable",
      "type": "receive"
    },
    {
      "inputs": [
        {
          "internalType": "uint256",
          "name": "_OffsetCarbonAllowance",
          "type": "uint256"
        }
      ],
      "name": "setTokenAllowance",
      "outputs": [],
      "stateMutability": "nonpayable",
      "type": "function"
    },
    {
      "inputs": [],
      "name": "getLatestPrice",
      "outputs": [
        {
          "internalType": "int256",
          "name": "",
          "type": "int256"
        }
      ],
      "stateMutability": "view",
      "type": "function"
    },
    {
      "inputs": [
        {
          "internalType": "uint256",
          "name": "amountMatic",
          "type": "uint256"
        }
      ],
      "name": "tokenAmount",
      "outputs": [
        {
          "internalType": "uint256",
          "name": "",
          "type": "uint256"
        }
      ],
      "stateMutability": "view",
      "type": "function"
    },
    {
      "inputs": [],
      "name": "withdraw",
      "outputs": [],
      "stateMutability": "nonpayable",
      "type": "function"
    }
  ],
  "bytecode": "0x60806040523480156200001157600080fd5b50604051620016a3380380620016a3833981810160405281019062000037919062000391565b886000806101000a81548173ffffffffffffffffffffffffffffffffffffffff021916908373ffffffffffffffffffffffffffffffffffffffff16021790555087600160006101000a81548173ffffffffffffffffffffffffffffffffffffffff021916908373ffffffffffffffffffffffffffffffffffffffff1602179055508660069081620000c991906200072d565b508560079081620000db91906200072d565b5084600860006101000a81548173ffffffffffffffffffffffffffffffffffffffff021916908373ffffffffffffffffffffffffffffffffffffffff16021790555083600290816200012e91906200072d565b50826004819055508160058190555080600990816200014e91906200072d565b5050505050505050505062000814565b6000604051905090565b600080fd5b600080fd5b600073ffffffffffffffffffffffffffffffffffffffff82169050919050565b60006200019f8262000172565b9050919050565b620001b18162000192565b8114620001bd57600080fd5b50565b600081519050620001d181620001a6565b92915050565b600080fd5b600080fd5b6000601f19601f8301169050919050565b7f4e487b7100000000000000000000000000000000000000000000000000000000600052604160045260246000fd5b6200022c82620001e1565b810181811067ffffffffffffffff821117156200024e576200024d620001f2565b5b80604052505050565b6000620002636200015e565b905062000271828262000221565b919050565b600067ffffffffffffffff821115620002945762000293620001f2565b5b6200029f82620001e1565b9050602081019050919050565b60005b83811015620002cc578082015181840152602081019050620002af565b60008484015250505050565b6000620002ef620002e98462000276565b62000257565b9050828152602081018484840111156200030e576200030d620001dc565b5b6200031b848285620002ac565b509392505050565b600082601f8301126200033b576200033a620001d7565b5b81516200034d848260208601620002d8565b91505092915050565b6000819050919050565b6200036b8162000356565b81146200037757600080fd5b50565b6000815190506200038b8162000360565b92915050565b60008060008060008060008060006101208a8c031215620003b757620003b662000168565b5b6000620003c78c828d01620001c0565b9950506020620003da8c828d01620001c0565b98505060408a015167ffffffffffffffff811115620003fe57620003fd6200016d565b5b6200040c8c828d0162000323565b97505060608a015167ffffffffffffffff81111562000430576200042f6200016d565b5b6200043e8c828d0162000323565b9650506080620004518c828d01620001c0565b95505060a08a015167ffffffffffffffff8111156200047557620004746200016d565b5b620004838c828d0162000323565b94505060c0620004968c828d016200037a565b93505060e0620004a98c828d016200037a565b9250506101008a015167ffffffffffffffff811115620004ce57620004cd6200016d565b5b620004dc8c828d0162000323565b9150509295985092959850929598565b600081519050919050565b7f4e487b7100000000000000000000000000000000000000000000000000000000600052602260045260246000fd5b600060028204905060018216806200053f57607f821691505b602082108103620005555762000554620004f7565b5b50919050565b60008190508160005260206000209050919050565b60006020601f8301049050919050565b600082821b905092915050565b600060088302620005bf7fffffffffffffffffffffffffffffffffffffffffffffffffffffffffffffffff8262000580565b620005cb868362000580565b95508019841693508086168417925050509392505050565b6000819050919050565b60006200060e62000608620006028462000356565b620005e3565b62000356565b9050919050565b6000819050919050565b6200062a83620005ed565b62000642620006398262000615565b8484546200058d565b825550505050565b600090565b620006596200064a565b620006668184846200061f565b505050565b5b818110156200068e57620006826000826200064f565b6001810190506200066c565b5050565b601f821115620006dd57620006a7816200055b565b620006b28462000570565b81016020851015620006c2578190505b620006da620006d18562000570565b8301826200066b565b50505b505050565b600082821c905092915050565b60006200070260001984600802620006e2565b1980831691505092915050565b60006200071d8383620006ef565b9150826002028217905092915050565b6200073882620004ec565b67ffffffffffffffff811115620007545762000753620001f2565b5b62000760825462000526565b6200076d82828562000692565b600060209050601f831160018114620007a5576000841562000790578287015190505b6200079c85826200070f565b8655506200080c565b601f198416620007b5866200055b565b60005b82811015620007df57848901518255600182019150602085019450602081019050620007b8565b86831015620007ff5784890151620007fb601f891682620006ef565b8355505b6001600288020188555050505b505050505050565b610e7f80620008246000396000f3fe6080604052600436106100c65760003560e01c8063d00d9c271161007f578063de242ff411610059578063de242ff414610337578063f5ec2eed14610362578063fc0c546a1461038d578063fdf48f2e146103b8576101b3565b8063d00d9c27146102b6578063d27fb607146102e1578063d8b0b4991461030c576101b3565b80633ccfd60b146101b857806345ab331e146101cf5780636bb38b281461020c5780637ff9b5961461023757806386485701146102625780638e15f4731461028b576101b3565b366101b35760006100d6346103e3565b905060035481111561011d576040517f08c379a000000000000000000000000000000000000000000000000000000000815260040161011490610960565b60405180910390fd5b6101268161043d565b600160009054906101000a900473ffffffffffffffffffffffffffffffffffffffff1673ffffffffffffffffffffffffffffffffffffffff166340c10f1933836040518363ffffffff1660e01b81526004016101839291906109da565b600060405180830381600087803b15801561019d57600080fd5b505af11580156101b1573d6000803e3d6000fd5b005b600080fd5b3480156101c457600080fd5b506101cd610459565b005b3480156101db57600080fd5b506101f660048036038101906101f19190610a34565b6103e3565b6040516102039190610a61565b60405180910390f35b34801561021857600080fd5b5061022161051e565b60405161022e9190610afb565b60405180910390f35b34801561024357600080fd5b5061024c6105ac565b6040516102599190610a61565b60405180910390f35b34801561026e57600080fd5b5061028960048036038101906102849190610a34565b6105b2565b005b34801561029757600080fd5b506102a0610616565b6040516102ad9190610b36565b60405180910390f35b3480156102c257600080fd5b506102cb6106b5565b6040516102d89190610a61565b60405180910390f35b3480156102ed57600080fd5b506102f66106bb565b6040516103039190610b51565b60405180910390f35b34801561031857600080fd5b506103216106e1565b60405161032e9190610afb565b60405180910390f35b34801561034357600080fd5b5061034c61076f565b6040516103599190610a61565b60405180910390f35b34801561036e57600080fd5b50610377610775565b6040516103849190610afb565b60405180910390f35b34801561039957600080fd5b506103a2610803565b6040516103af9190610bcb565b60405180910390f35b3480156103c457600080fd5b506103cd610829565b6040516103da9190610afb565b60405180910390f35b6000806103ee610616565b90506000670de0b6b3a764000082856104079190610c15565b6104119190610c86565b90506000612710600454836104269190610c86565b6104309190610c86565b9050809350505050919050565b806003600082825461044f9190610cb7565b9250508190555050565b600860009054906101000a900473ffffffffffffffffffffffffffffffffffffffff1673ffffffffffffffffffffffffffffffffffffffff163373ffffffffffffffffffffffffffffffffffffffff16146104b357600080fd5b600860009054906101000a900473ffffffffffffffffffffffffffffffffffffffff1673ffffffffffffffffffffffffffffffffffffffff166108fc479081150290604051600060405180830381858888f1935050505015801561051b573d6000803e3d6000fd5b50565b6009805461052b90610d1a565b80601f016020809104026020016040519081016040528092919081815260200182805461055790610d1a565b80156105a45780601f10610579576101008083540402835291602001916105a4565b820191906000526020600020905b81548152906001019060200180831161058757829003601f168201915b505050505081565b60045481565b600860009054906101000a900473ffffffffffffffffffffffffffffffffffffffff1673ffffffffffffffffffffffffffffffffffffffff163373ffffffffffffffffffffffffffffffffffffffff161461060c57600080fd5b8060038190555050565b60008060008054906101000a900473ffffffffffffffffffffffffffffffffffffffff1673ffffffffffffffffffffffffffffffffffffffff1663feaf968c6040518163ffffffff1660e01b815260040160a060405180830381865afa158015610684573d6000803e3d6000fd5b505050506040513d601f19601f820116820180604052508101906106a89190610dce565b5050509150508091505090565b60055481565b600860009054906101000a900473ffffffffffffffffffffffffffffffffffffffff1681565b600280546106ee90610d1a565b80601f016020809104026020016040519081016040528092919081815260200182805461071a90610d1a565b80156107675780601f1061073c57610100808354040283529160200191610767565b820191906000526020600020905b81548152906001019060200180831161074a57829003601f168201915b505050505081565b60035481565b6006805461078290610d1a565b80601f01602080910402602001604051908101604052809291908181526020018280546107ae90610d1a565b80156107fb5780601f106107d0576101008083540402835291602001916107fb565b820191906000526020600020905b8154815290600101906020018083116107de57829003601f168201915b505050505081565b600160009054906101000a900473ffffffffffffffffffffffffffffffffffffffff1681565b6007805461083690610d1a565b80601f016020809104026020016040519081016040528092919081815260200182805461086290610d1a565b80156108af5780601f10610884576101008083540402835291602001916108af565b820191906000526020600020905b81548152906001019060200180831161089257829003601f168201915b505050505081565b600082825260208201905092915050565b7f5468697320636f6d70616e7920646f6573206e6f74206861766520656e6f756760008201527f6820746f6b656e7320746f206361727279206f757420746869732073616c652060208201527f6f7065726174696f6e2e00000000000000000000000000000000000000000000604082015250565b600061094a604a836108b7565b9150610955826108c8565b606082019050919050565b600060208201905081810360008301526109798161093d565b9050919050565b600073ffffffffffffffffffffffffffffffffffffffff82169050919050565b60006109ab82610980565b9050919050565b6109bb816109a0565b82525050565b6000819050919050565b6109d4816109c1565b82525050565b60006040820190506109ef60008301856109b2565b6109fc60208301846109cb565b9392505050565b600080fd5b610a11816109c1565b8114610a1c57600080fd5b50565b600081359050610a2e81610a08565b92915050565b600060208284031215610a4a57610a49610a03565b5b6000610a5884828501610a1f565b91505092915050565b6000602082019050610a7660008301846109cb565b92915050565b600081519050919050565b60005b83811015610aa5578082015181840152602081019050610a8a565b60008484015250505050565b6000601f19601f8301169050919050565b6000610acd82610a7c565b610ad781856108b7565b9350610ae7818560208601610a87565b610af081610ab1565b840191505092915050565b60006020820190508181036000830152610b158184610ac2565b905092915050565b6000819050919050565b610b3081610b1d565b82525050565b6000602082019050610b4b6000830184610b27565b92915050565b6000602082019050610b6660008301846109b2565b92915050565b6000819050919050565b6000610b91610b8c610b8784610980565b610b6c565b610980565b9050919050565b6000610ba382610b76565b9050919050565b6000610bb582610b98565b9050919050565b610bc581610baa565b82525050565b6000602082019050610be06000830184610bbc565b92915050565b7f4e487b7100000000000000000000000000000000000000000000000000000000600052601160045260246000fd5b6000610c20826109c1565b9150610c2b836109c1565b9250828202610c39816109c1565b91508282048414831517610c5057610c4f610be6565b5b5092915050565b7f4e487b7100000000000000000000000000000000000000000000000000000000600052601260045260246000fd5b6000610c91826109c1565b9150610c9c836109c1565b925082610cac57610cab610c57565b5b828204905092915050565b6000610cc2826109c1565b9150610ccd836109c1565b9250828203905081811115610ce557610ce4610be6565b5b92915050565b7f4e487b7100000000000000000000000000000000000000000000000000000000600052602260045260246000fd5b60006002820490506001821680610d3257607f821691505b602082108103610d4557610d44610ceb565b5b50919050565b600069ffffffffffffffffffff82169050919050565b610d6a81610d4b565b8114610d7557600080fd5b50565b600081519050610d8781610d61565b92915050565b610d9681610b1d565b8114610da157600080fd5b50565b600081519050610db381610d8d565b92915050565b600081519050610dc881610a08565b92915050565b600080600080600060a08688031215610dea57610de9610a03565b5b6000610df888828901610d78565b9550506020610e0988828901610da4565b9450506040610e1a88828901610db9565b9350506060610e2b88828901610db9565b9250506080610e3c88828901610d78565b915050929550929590935056fea2646970667358221220afc2a65e7724201352a5ebba436345fe53d50ef6f96116ebbba8270e9d9f8c1864736f6c63430008130033",
  "immutableReferences": {},
  "source": "// SPDX-License-Identifier: MIT\r\npragma solidity 0.8.19;\r\n\r\nimport \"@chainlink/contracts/src/v0.8/interfaces/AggregatorV3Interface.sol\";\r\n\r\ninterface TokenInterface {\r\n    function mint(address account, uint256 amount) external;\r\n}\r\n\r\ncontract Company {\r\n    AggregatorV3Interface internal priceFeed; // variable to store the price feed of the native token ( CHAINLINK USE CASE!!! )\r\n    TokenInterface public token; // variable to store the token contract interface\r\n    string public country; // variable to store the country of the company\r\n    uint256 public allowance; // variable to store the allowance for the company sell OffsetCarbonTokens\r\n    uint256 public tokenPrice; // variable to store the price of the OffSetCarbonToken on this compesation system\r\n    uint256 public carbonCreditsEmmiteds; // variable to store the amount of carbon credits emmiteds by the company\r\n    string public companyName; // variable to store the name of the company\r\n    string public companyType; // variable to store the type of the company\r\n    address public companyOwner; // variable to store the owner of the company\r\n    string public logoURI; // variable to store the logo of the company on IPFS\r\n\r\n    /*\r\n    AggregatorV3Interface address Polygon Mumbai Testnet PoS:\r\n\r\n    0xd0D5e3DB44DE05E9F294BB0a3bEEaF030DE24Ada\r\n    */\r\n\r\n    constructor(\r\n        address _aggregatorV3Interface,\r\n        address tokenAddress,\r\n        string memory _companyName,\r\n        string memory _companyType,\r\n        address _companyOwner,\r\n        string memory _country,\r\n        uint256 _tokenPrice,\r\n        uint256 _carbonCreditsEmmiteds,\r\n        string memory _logoURI\r\n    ) {\r\n        priceFeed = AggregatorV3Interface(_aggregatorV3Interface);\r\n        token = TokenInterface(tokenAddress);\r\n        companyName = _companyName;\r\n        companyType = _companyType;\r\n        companyOwner = _companyOwner;\r\n        country = _country;\r\n        tokenPrice = _tokenPrice;\r\n        carbonCreditsEmmiteds = _carbonCreditsEmmiteds;\r\n        logoURI = _logoURI;\r\n    }\r\n\r\n    // modifier to restrict access to the company owner\r\n    modifier onlyCompanyOwner() {\r\n        require(msg.sender == companyOwner);\r\n        _;\r\n    }\r\n\r\n    // function to set the allowance of the company if the msg.sender is the company owner\r\n    function setTokenAllowance(uint256 _OffsetCarbonAllowance) public onlyCompanyOwner {\r\n        allowance = _OffsetCarbonAllowance;\r\n    }\r\n\r\n    // function to decrease the allowance of the company when a user buys OffsetCarbonTokens\r\n    function decreaseAllowance(uint256 _allowanceSpent) private {\r\n        allowance -= _allowanceSpent;\r\n    }\r\n\r\n    // function to get the latest price of the native token in USD (CHAINLINK USE CASE!!!)\r\n    function getLatestPrice() public view returns (int) {\r\n        (, int price, , , ) = priceFeed.latestRoundData();\r\n        return price;\r\n    }\r\n\r\n    // function to calculate the amount of tokens to be minted\r\n    function tokenAmount(uint256 amountMatic) public view returns (uint256) {\r\n        uint256 maticUsd = uint256(getLatestPrice());\r\n        uint256 amountUSD = (amountMatic * maticUsd) / 10 ** 18;\r\n        uint256 amountToken = amountUSD / tokenPrice / 10 ** (8 / 2);\r\n        return amountToken;\r\n    }\r\n\r\n    // function to buy tokens, sending native tokens to the contract and receiving tokens in return\r\n    receive() external payable {\r\n        uint256 amountToken = tokenAmount(msg.value);\r\n        require(\r\n            amountToken <= allowance,\r\n            \"This company does not have enough tokens to carry out this sale operation.\"\r\n        );\r\n        decreaseAllowance(amountToken);\r\n        token.mint(msg.sender, amountToken);\r\n    }\r\n\r\n    // function to withdraw the balance of the contract if the msg.sender is the company owner\r\n    function withdraw() external onlyCompanyOwner {\r\n        payable(companyOwner).transfer(address(this).balance);\r\n    }\r\n}\r\n",
  "sourcePath": "C:\\Users\\Inteli\\repos\\blockchain\\contracts\\Company.sol",
  "compiler": {
    "name": "solc",
    "version": "0.8.19+commit.7dd6d404.Emscripten.clang"
  },
  "schemaVersion": "3.4.10",
  "updatedAt": "2023-06-09T17:52:25.965Z",
  "devdoc": {
    "kind": "dev",
    "methods": {},
    "version": 1
  },
  "userdoc": {
    "kind": "user",
    "methods": {},
    "version": 1
  }
}