{
    "abi": [
        {
            "inputs": [
                {
                    "internalType": "string",
                    "name": "_cid",
                    "type": "string"
                },
                {
                    "internalType": "string",
                    "name": "_name",
                    "type": "string"
                },
                {
                    "internalType": "address",
                    "name": "_token",
                    "type": "address"
                },
                {
                    "internalType": "string",
                    "name": "_country",
                    "type": "string"
                },
                {
                    "internalType": "string",
                    "name": "_industry",
                    "type": "string"
                },
                {
                    "internalType": "uint256",
                    "name": "_allowance",
                    "type": "uint256"
                },
                {
                    "internalType": "address",
                    "name": "_cartesiInputBox",
                    "type": "address"
                },
                {
                    "internalType": "address",
                    "name": "_cartesiERC20Portal",
                    "type": "address"
                },
                {
                    "internalType": "address",
                    "name": "_cartesiEtherPortal",
                    "type": "address"
                },
                {
                    "internalType": "address",
                    "name": "_cartesiDAppAddressRelay",
                    "type": "address"
                },
                {
                    "internalType": "uint256",
                    "name": "_compensation",
                    "type": "uint256"
                },
                {
                    "internalType": "address",
                    "name": "_agent",
                    "type": "address"
                }
            ],
            "stateMutability": "nonpayable",
            "type": "constructor"
        },
        {
            "inputs": [
                {
                    "internalType": "address",
                    "name": "_sender",
                    "type": "address"
                },
                {
                    "internalType": "uint256",
                    "name": "_amount",
                    "type": "uint256"
                },
                {
                    "internalType": "uint256",
                    "name": "_interestedQuantity",
                    "type": "uint256"
                }
            ],
            "name": "BidFailed",
            "type": "error"
        },
        {
            "inputs": [
                {
                    "internalType": "address",
                    "name": "_cartesiERC20Portal",
                    "type": "address"
                },
                {
                    "internalType": "address",
                    "name": "_sender",
                    "type": "address"
                },
                {
                    "internalType": "uint256",
                    "name": "_amount",
                    "type": "uint256"
                }
            ],
            "name": "GrantAllowanceFailed",
            "type": "error"
        },
        {
            "inputs": [
                {
                    "internalType": "address",
                    "name": "_sender",
                    "type": "address"
                },
                {
                    "internalType": "uint256",
                    "name": "_amount",
                    "type": "uint256"
                }
            ],
            "name": "InsufficientBalance",
            "type": "error"
        },
        {
            "inputs": [
                {
                    "internalType": "uint256",
                    "name": "_amount",
                    "type": "uint256"
                }
            ],
            "name": "InsuficientAllowance",
            "type": "error"
        },
        {
            "inputs": [
                {
                    "internalType": "address",
                    "name": "_sender",
                    "type": "address"
                },
                {
                    "internalType": "uint256",
                    "name": "_amount",
                    "type": "uint256"
                }
            ],
            "name": "NewAuctionFailed",
            "type": "error"
        },
        {
            "inputs": [
                {
                    "internalType": "address",
                    "name": "_sender",
                    "type": "address"
                },
                {
                    "internalType": "bytes",
                    "name": "_payload",
                    "type": "bytes"
                },
                {
                    "components": [
                        {
                            "components": [
                                {
                                    "internalType": "uint64",
                                    "name": "inputIndex",
                                    "type": "uint64"
                                },
                                {
                                    "internalType": "uint64",
                                    "name": "outputIndex",
                                    "type": "uint64"
                                },
                                {
                                    "internalType": "bytes32",
                                    "name": "outputHashesRootHash",
                                    "type": "bytes32"
                                },
                                {
                                    "internalType": "bytes32",
                                    "name": "vouchersEpochRootHash",
                                    "type": "bytes32"
                                },
                                {
                                    "internalType": "bytes32",
                                    "name": "noticesEpochRootHash",
                                    "type": "bytes32"
                                },
                                {
                                    "internalType": "bytes32",
                                    "name": "machineStateHash",
                                    "type": "bytes32"
                                },
                                {
                                    "internalType": "bytes32[]",
                                    "name": "keccakInHashesSiblings",
                                    "type": "bytes32[]"
                                },
                                {
                                    "internalType": "bytes32[]",
                                    "name": "outputHashesInEpochSiblings",
                                    "type": "bytes32[]"
                                }
                            ],
                            "internalType": "struct OutputValidityProof",
                            "name": "validity",
                            "type": "tuple"
                        },
                        {
                            "internalType": "bytes",
                            "name": "context",
                            "type": "bytes"
                        }
                    ],
                    "internalType": "struct Proof",
                    "name": "_proof",
                    "type": "tuple"
                }
            ],
            "name": "WithdrawFailed",
            "type": "error"
        },
        {
            "anonymous": false,
            "inputs": [
                {
                    "indexed": false,
                    "internalType": "address",
                    "name": "_sender",
                    "type": "address"
                },
                {
                    "indexed": false,
                    "internalType": "bytes",
                    "name": "_payload",
                    "type": "bytes"
                },
                {
                    "components": [
                        {
                            "components": [
                                {
                                    "internalType": "uint64",
                                    "name": "inputIndex",
                                    "type": "uint64"
                                },
                                {
                                    "internalType": "uint64",
                                    "name": "outputIndex",
                                    "type": "uint64"
                                },
                                {
                                    "internalType": "bytes32",
                                    "name": "outputHashesRootHash",
                                    "type": "bytes32"
                                },
                                {
                                    "internalType": "bytes32",
                                    "name": "vouchersEpochRootHash",
                                    "type": "bytes32"
                                },
                                {
                                    "internalType": "bytes32",
                                    "name": "noticesEpochRootHash",
                                    "type": "bytes32"
                                },
                                {
                                    "internalType": "bytes32",
                                    "name": "machineStateHash",
                                    "type": "bytes32"
                                },
                                {
                                    "internalType": "bytes32[]",
                                    "name": "keccakInHashesSiblings",
                                    "type": "bytes32[]"
                                },
                                {
                                    "internalType": "bytes32[]",
                                    "name": "outputHashesInEpochSiblings",
                                    "type": "bytes32[]"
                                }
                            ],
                            "internalType": "struct OutputValidityProof",
                            "name": "validity",
                            "type": "tuple"
                        },
                        {
                            "internalType": "bytes",
                            "name": "context",
                            "type": "bytes"
                        }
                    ],
                    "indexed": false,
                    "internalType": "struct Proof",
                    "name": "_proof",
                    "type": "tuple"
                }
            ],
            "name": "AuctionVoucherExecuted",
            "type": "event"
        },
        {
            "anonymous": false,
            "inputs": [
                {
                    "indexed": false,
                    "internalType": "address",
                    "name": "_sender",
                    "type": "address"
                },
                {
                    "indexed": false,
                    "internalType": "uint256",
                    "name": "_amount",
                    "type": "uint256"
                }
            ],
            "name": "Mint",
            "type": "event"
        },
        {
            "anonymous": false,
            "inputs": [
                {
                    "indexed": false,
                    "internalType": "bytes4",
                    "name": "_functionSignature",
                    "type": "bytes4"
                },
                {
                    "indexed": false,
                    "internalType": "address",
                    "name": "_sender",
                    "type": "address"
                },
                {
                    "indexed": false,
                    "internalType": "uint256",
                    "name": "_amount",
                    "type": "uint256"
                },
                {
                    "indexed": false,
                    "internalType": "uint256",
                    "name": "_duration",
                    "type": "uint256"
                },
                {
                    "indexed": false,
                    "internalType": "uint256",
                    "name": "_reservePricePerToken",
                    "type": "uint256"
                }
            ],
            "name": "NewAuction",
            "type": "event"
        },
        {
            "anonymous": false,
            "inputs": [
                {
                    "indexed": false,
                    "internalType": "address",
                    "name": "_sender",
                    "type": "address"
                },
                {
                    "indexed": false,
                    "internalType": "uint256",
                    "name": "_amount",
                    "type": "uint256"
                },
                {
                    "indexed": false,
                    "internalType": "uint256",
                    "name": "_interestedQuantity",
                    "type": "uint256"
                }
            ],
            "name": "NewBid",
            "type": "event"
        },
        {
            "anonymous": false,
            "inputs": [
                {
                    "indexed": true,
                    "internalType": "bytes32",
                    "name": "role",
                    "type": "bytes32"
                },
                {
                    "indexed": true,
                    "internalType": "bytes32",
                    "name": "previousAdminRole",
                    "type": "bytes32"
                },
                {
                    "indexed": true,
                    "internalType": "bytes32",
                    "name": "newAdminRole",
                    "type": "bytes32"
                }
            ],
            "name": "RoleAdminChanged",
            "type": "event"
        },
        {
            "anonymous": false,
            "inputs": [
                {
                    "indexed": true,
                    "internalType": "bytes32",
                    "name": "role",
                    "type": "bytes32"
                },
                {
                    "indexed": true,
                    "internalType": "address",
                    "name": "account",
                    "type": "address"
                },
                {
                    "indexed": true,
                    "internalType": "address",
                    "name": "sender",
                    "type": "address"
                }
            ],
            "name": "RoleGranted",
            "type": "event"
        },
        {
            "anonymous": false,
            "inputs": [
                {
                    "indexed": true,
                    "internalType": "bytes32",
                    "name": "role",
                    "type": "bytes32"
                },
                {
                    "indexed": true,
                    "internalType": "address",
                    "name": "account",
                    "type": "address"
                },
                {
                    "indexed": true,
                    "internalType": "address",
                    "name": "sender",
                    "type": "address"
                }
            ],
            "name": "RoleRevoked",
            "type": "event"
        },
        {
            "anonymous": false,
            "inputs": [
                {
                    "indexed": false,
                    "internalType": "address",
                    "name": "_sender",
                    "type": "address"
                },
                {
                    "indexed": false,
                    "internalType": "bytes",
                    "name": "_payload",
                    "type": "bytes"
                },
                {
                    "components": [
                        {
                            "components": [
                                {
                                    "internalType": "uint64",
                                    "name": "inputIndex",
                                    "type": "uint64"
                                },
                                {
                                    "internalType": "uint64",
                                    "name": "outputIndex",
                                    "type": "uint64"
                                },
                                {
                                    "internalType": "bytes32",
                                    "name": "outputHashesRootHash",
                                    "type": "bytes32"
                                },
                                {
                                    "internalType": "bytes32",
                                    "name": "vouchersEpochRootHash",
                                    "type": "bytes32"
                                },
                                {
                                    "internalType": "bytes32",
                                    "name": "noticesEpochRootHash",
                                    "type": "bytes32"
                                },
                                {
                                    "internalType": "bytes32",
                                    "name": "machineStateHash",
                                    "type": "bytes32"
                                },
                                {
                                    "internalType": "bytes32[]",
                                    "name": "keccakInHashesSiblings",
                                    "type": "bytes32[]"
                                },
                                {
                                    "internalType": "bytes32[]",
                                    "name": "outputHashesInEpochSiblings",
                                    "type": "bytes32[]"
                                }
                            ],
                            "internalType": "struct OutputValidityProof",
                            "name": "validity",
                            "type": "tuple"
                        },
                        {
                            "internalType": "bytes",
                            "name": "context",
                            "type": "bytes"
                        }
                    ],
                    "indexed": false,
                    "internalType": "struct Proof",
                    "name": "_proof",
                    "type": "tuple"
                }
            ],
            "name": "VerifierVoucherExecuted",
            "type": "event"
        },
        {
            "inputs": [],
            "name": "DEFAULT_ADMIN_ROLE",
            "outputs": [
                {
                    "internalType": "bytes32",
                    "name": "",
                    "type": "bytes32"
                }
            ],
            "stateMutability": "view",
            "type": "function"
        },
        {
            "inputs": [
                {
                    "internalType": "address",
                    "name": "_hardwareAddress",
                    "type": "address"
                }
            ],
            "name": "addHardwareDevice",
            "outputs": [],
            "stateMutability": "nonpayable",
            "type": "function"
        },
        {
            "inputs": [],
            "name": "company",
            "outputs": [
                {
                    "internalType": "string",
                    "name": "cid",
                    "type": "string"
                },
                {
                    "internalType": "string",
                    "name": "name",
                    "type": "string"
                },
                {
                    "internalType": "address",
                    "name": "token",
                    "type": "address"
                },
                {
                    "internalType": "string",
                    "name": "country",
                    "type": "string"
                },
                {
                    "internalType": "string",
                    "name": "industry",
                    "type": "string"
                },
                {
                    "internalType": "uint256",
                    "name": "allowance",
                    "type": "uint256"
                },
                {
                    "internalType": "uint256",
                    "name": "auctionDuration",
                    "type": "uint256"
                },
                {
                    "internalType": "address",
                    "name": "cartesiAuction",
                    "type": "address"
                },
                {
                    "internalType": "address",
                    "name": "cartesiInputBox",
                    "type": "address"
                },
                {
                    "internalType": "address",
                    "name": "cartesiVerifier",
                    "type": "address"
                },
                {
                    "internalType": "address",
                    "name": "cartesiERC20Portal",
                    "type": "address"
                },
                {
                    "internalType": "address",
                    "name": "cartesiEtherPortal",
                    "type": "address"
                },
                {
                    "internalType": "address",
                    "name": "cartesiDAppAddressRelay",
                    "type": "address"
                },
                {
                    "internalType": "uint256",
                    "name": "compensation",
                    "type": "uint256"
                }
            ],
            "stateMutability": "view",
            "type": "function"
        },
        {
            "inputs": [],
            "name": "finishAuction",
            "outputs": [],
            "stateMutability": "nonpayable",
            "type": "function"
        },
        {
            "inputs": [
                {
                    "internalType": "bytes32",
                    "name": "role",
                    "type": "bytes32"
                }
            ],
            "name": "getRoleAdmin",
            "outputs": [
                {
                    "internalType": "bytes32",
                    "name": "",
                    "type": "bytes32"
                }
            ],
            "stateMutability": "view",
            "type": "function"
        },
        {
            "inputs": [],
            "name": "getURI",
            "outputs": [
                {
                    "internalType": "string",
                    "name": "",
                    "type": "string"
                }
            ],
            "stateMutability": "view",
            "type": "function"
        },
        {
            "inputs": [
                {
                    "internalType": "bytes32",
                    "name": "role",
                    "type": "bytes32"
                },
                {
                    "internalType": "address",
                    "name": "account",
                    "type": "address"
                }
            ],
            "name": "grantRole",
            "outputs": [],
            "stateMutability": "nonpayable",
            "type": "function"
        },
        {
            "inputs": [
                {
                    "internalType": "bytes32",
                    "name": "role",
                    "type": "bytes32"
                },
                {
                    "internalType": "address",
                    "name": "account",
                    "type": "address"
                }
            ],
            "name": "hasRole",
            "outputs": [
                {
                    "internalType": "bool",
                    "name": "",
                    "type": "bool"
                }
            ],
            "stateMutability": "view",
            "type": "function"
        },
        {
            "inputs": [],
            "name": "increaseAllowance",
            "outputs": [],
            "stateMutability": "nonpayable",
            "type": "function"
        },
        {
            "inputs": [
                {
                    "internalType": "uint256",
                    "name": "_amount",
                    "type": "uint256"
                }
            ],
            "name": "mint",
            "outputs": [],
            "stateMutability": "nonpayable",
            "type": "function"
        },
        {
            "inputs": [
                {
                    "internalType": "uint256",
                    "name": "_amount",
                    "type": "uint256"
                },
                {
                    "internalType": "uint256",
                    "name": "_duration",
                    "type": "uint256"
                },
                {
                    "internalType": "uint256",
                    "name": "_reservePricePerToken",
                    "type": "uint256"
                }
            ],
            "name": "newAuction",
            "outputs": [],
            "stateMutability": "nonpayable",
            "type": "function"
        },
        {
            "inputs": [
                {
                    "internalType": "uint256",
                    "name": "_interestedQuantity",
                    "type": "uint256"
                }
            ],
            "name": "newBid",
            "outputs": [],
            "stateMutability": "payable",
            "type": "function"
        },
        {
            "inputs": [
                {
                    "internalType": "bytes32",
                    "name": "role",
                    "type": "bytes32"
                },
                {
                    "internalType": "address",
                    "name": "account",
                    "type": "address"
                }
            ],
            "name": "renounceRole",
            "outputs": [],
            "stateMutability": "nonpayable",
            "type": "function"
        },
        {
            "inputs": [
                {
                    "internalType": "bytes32",
                    "name": "role",
                    "type": "bytes32"
                },
                {
                    "internalType": "address",
                    "name": "account",
                    "type": "address"
                }
            ],
            "name": "revokeRole",
            "outputs": [],
            "stateMutability": "nonpayable",
            "type": "function"
        },
        {
            "inputs": [
                {
                    "internalType": "address",
                    "name": "_cartesiAuction",
                    "type": "address"
                },
                {
                    "internalType": "address",
                    "name": "_cartesiVerifier",
                    "type": "address"
                }
            ],
            "name": "setAuxiliaryContracts",
            "outputs": [],
            "stateMutability": "nonpayable",
            "type": "function"
        },
        {
            "inputs": [
                {
                    "internalType": "bytes4",
                    "name": "interfaceId",
                    "type": "bytes4"
                }
            ],
            "name": "supportsInterface",
            "outputs": [
                {
                    "internalType": "bool",
                    "name": "",
                    "type": "bool"
                }
            ],
            "stateMutability": "view",
            "type": "function"
        },
        {
            "inputs": [
                {
                    "internalType": "address",
                    "name": "_to",
                    "type": "address"
                },
                {
                    "internalType": "uint256",
                    "name": "_amount",
                    "type": "uint256"
                }
            ],
            "name": "transferCarbonCredits",
            "outputs": [],
            "stateMutability": "nonpayable",
            "type": "function"
        },
        {
            "inputs": [
                {
                    "internalType": "string",
                    "name": "_RealWorldData",
                    "type": "string"
                }
            ],
            "name": "verifyRealWorldState",
            "outputs": [],
            "stateMutability": "nonpayable",
            "type": "function"
        }
    ],
    "bytecode": {
        "object": "0x604060808152346200086b5762002606803803806200001e8162000870565b928339810190610180818303126200086b5780516001600160401b0381116200086b57826200004f91830162000896565b60208201519092906001600160401b0381116200086b57816200007491840162000896565b906200008285840162000908565b60608401519091906001600160401b0381116200086b5781620000a791860162000896565b608085015190916001600160401b0382116200086b57620000ca91860162000896565b60a0850151620000dd60c0870162000908565b91620000ec60e0880162000908565b93620000fc610100890162000908565b956200010c6101208a0162000908565b97620001226101606101408c01519b0162000908565b8b51909b6001600160401b038211620005515760015490600182811c9216801562000860575b6020831014620005305781601f849311620007ff575b50602090601f8311600114620007815760009262000775575b50508160011b916000199060031b1c1916176001555b8051906001600160401b038211620005515760025490600182811c921680156200076a575b6020831014620005305781601f84931162000709575b50602090601f83116001146200068b576000926200067f575b50508160011b916000199060031b1c1916176002555b600380546001600160a01b0319166001600160a01b03929092169190911790558051906001600160401b038211620005515760045490600182811c9216801562000674575b6020831014620005305781601f84931162000602575b50602090601f8311600114620005735760009262000567575b50508160011b916000199060031b1c1916176004555b8051906001600160401b038211620005515760055490600182811c9216801562000546575b6020831014620005305781601f849311620004da575b50602090601f83116001146200044b576000926200043f575b50508160011b916000199060031b1c1916176005555b600655600980546001600160a01b03199081166001600160a01b0393841617909155600b8054821693831693909317909255600c8054831693821693909317909255600d805490911692821692909217909155600e919091556000808052602081815284822093909216808252929091528290205460ff1615620003ff575b7fcab5a0bfe0b79d2c4b1c2e02599fa044d115b7511f9659307cb427695096770990816000526000602052826000208160005260205260ff83600020541615620003be575b8251611c8890816200091e8239f35b816000526000602052826000208160005260205282600020600160ff198254161790553391600080516020620025a6833981519152600080a43880620003af565b600080526000602052816000208160005260205281600020600160ff1982541617905533816000600080516020620025a68339815191528180a46200036a565b015190503880620002d5565b6005600090815293507f036b6384b5eca791c62761152d0c79bb0604c104a5fb6f4eb0703f3154bb3db091905b601f1984168510620004be576001945083601f19811610620004a4575b505050811b01600555620002eb565b015160001960f88460031b161c1916905538808062000495565b8181015183556020948501946001909301929091019062000478565b90915060056000526020600020601f840160051c81016020851062000528575b90849392915b601f830160051c8201811062000518575050620002bc565b6000815585945060010162000500565b5080620004fa565b634e487b7160e01b600052602260045260246000fd5b91607f1691620002a6565b634e487b7160e01b600052604160045260246000fd5b0151905038806200026b565b6004600090815293507f8a35acfbc15ff81a39ae7d344fd709f28e8600b4aa8c65c6b64bfe7fe36bd19b91905b601f1984168510620005e6576001945083601f19811610620005cc575b505050811b0160045562000281565b015160001960f88460031b161c19169055388080620005bd565b81810151835560209485019460019093019290910190620005a0565b60046000529091507f8a35acfbc15ff81a39ae7d344fd709f28e8600b4aa8c65c6b64bfe7fe36bd19b601f840160051c8101602085106200066c575b90849392915b601f830160051c820181106200065c57505062000252565b6000815585945060010162000644565b50806200063e565b91607f16916200023c565b015190503880620001e1565b600260009081529350600080516020620025c683398151915291905b601f1984168510620006ed576001945083601f19811610620006d3575b505050811b01600255620001f7565b015160001960f88460031b161c19169055388080620006c4565b81810151835560209485019460019093019290910190620006a7565b6002600052909150600080516020620025c6833981519152601f840160051c81016020851062000762575b90849392915b601f830160051c8201811062000752575050620001c8565b600081558594506001016200073a565b508062000734565b91607f1691620001b2565b01519050388062000177565b600160009081529350600080516020620025e683398151915291905b601f1984168510620007e3576001945083601f19811610620007c9575b505050811b016001556200018d565b015160001960f88460031b161c19169055388080620007ba565b818101518355602094850194600190930192909101906200079d565b6001600052909150600080516020620025e6833981519152601f840160051c81016020851062000858575b90849392915b601f830160051c82018110620008485750506200015e565b6000815585945060010162000830565b50806200082a565b91607f169162000148565b600080fd5b6040519190601f01601f191682016001600160401b038111838210176200055157604052565b919080601f840112156200086b5782516001600160401b0381116200055157602090620008cc601f8201601f1916830162000870565b928184528282870101116200086b5760005b818110620008f457508260009394955001015290565b8581018301518482018401528201620008de565b51906001600160a01b03821682036200086b5756fe6080604081815260048036101561001557600080fd5b60009283358060e01c91826301ffc9a7146114f657508163248a9ca3146114cc578163290f000a146112885781632f2ff15d1461122757816336568abe14611195578163430ca46f146110ef5781636904c94d14610d685781637754305c14610cae578163835fab8414610be957848263917a1fba14610a175750816391d14854146109d2578163a0712d68146108c8578163a217fddf146108a8578163afcdd813146107a1578163c1e8b268146104a4578163d547741f14610466578163e2543d1c1461030e575063ed91f1d0146100ed57600080fd5b3461030a578260031936011261030a577f0ce23c3e399818cfee81a7ab0880f714e53d7672b08df0fa62f2843416e1ea099182600052602092600084528160002033600052845260ff826000205416156101565784610150600e54600654611aa1565b60065580f35b61015f33611aeb565b90825161016b816115bd565b604281528581019160603684378151156102f5576030835381516001908110156102e057607860218401536041905b80821161027357505061024457604861021793859361022693610240975196879376020b1b1b2b9b9a1b7b73a3937b61d1030b1b1b7bab73a1604d1b8c8601526101ee8c82519283916037890191016116e3565b8401917001034b99036b4b9b9b4b733903937b6329607d1b6037840152518093868401906116e3565b010360288101855201836115d9565b5193849362461bcd60e51b85528401526024830190611706565b0390fd5b606485878087519262461bcd60e51b84528301526024820152600080516020611c338339815191526044820152fd5b9091600f811660108110156102cb576f181899199a1a9b1b9c1cb0b131b232b360811b901a6102a28486611ac4565b53871c9180156102b657600019019061019a565b601188634e487b7160e01b6000525260246000fd5b603289634e487b7160e01b6000525260246000fd5b603287634e487b7160e01b6000525260246000fd5b603286634e487b7160e01b6000525260246000fd5b8280fd5b82848660203660031901126104635782359382519063ffffffff60e01b1660208201523360601b602482015284603882015260388152606081019080821067ffffffffffffffff83111761044e57818452600c5460085463938c054f60e01b60808401908152859485946001600160a01b0394851694929391926103ae9261039c9183911660848201611be8565b03607f1981018352605f1901826115d9565b519134905af13d15610449573d6103c48161172b565b906103d1855192836115d9565b81528260203d92013e5b61040957505163450226b360e01b815233918101918252346020830152604082019290925281906060010390fd5b8151338152346020820152604081018590527f87f5b2fe112bf269d30fb8ca9dc0bde0afd0cc39258e13fafd75fe794795bf0e9080606081015b0390a180f35b6103db565b604185634e487b7160e01b6000525260246000fd5b80fd5b5050903461030a578060031936011261030a576104a1913561049c600161048b61154b565b938387528660205286200154611923565b611a2d565b80f35b849391503461079d57602092836003193601126107995780359167ffffffffffffffff831161079557366023840112156107955782820135906104e68261172b565b936104f3865195866115d9565b82855287878601916024943686828401011161030a5780868b93018537870101527f5ebb184165085ace46d0999c321c0aa1dff31a8e7036d770713c0c15c094d3ed80600052600088528660002033600052885260ff8760002054161561060f5750859492879492610592926105836105c5995196879363ffffffff60e01b1689850152518092858501906116e3565b810103838101855201836115d9565b600954600a548551631789cd6360e01b81529687946001600160a01b039384169486948c94869493929116908401611be8565b03925af190811561060657506105d9578280f35b813d83116105ff575b6105ec81836115d9565b810103126105fa5781808280f35b600080fd5b503d6105e2565b513d85823e3d90fd5b8484888a9361061d33611aeb565b908251610629816115bd565b604281528681019160603684378151156107815760308353815160019081101561076d57607860218401536041905b8082116107025750506106d4576048610240959385936106bc936106ad975197889376020b1b1b2b9b9a1b7b73a3937b61d1030b1b1b7bab73a1604d1b8d8601526101ee8d82519283916037890191016116e3565b010360288101865201846115d9565b5194859462461bcd60e51b8652850152830190611706565b60648688878188519362461bcd60e51b8552840152820152600080516020611c338339815191526044820152fd5b9091600f81166010811015610759576f181899199a1a9b1b9c1cb0b131b232b360811b901a6107318486611ac4565b53881c918015610745576000190190610658565b8760118a634e487b7160e01b600052526000fd5b8860328b634e487b7160e01b600052526000fd5b86603289634e487b7160e01b600052526000fd5b85603288634e487b7160e01b600052526000fd5b8580fd5b8480fd5b8380fd5b505082346104635782600319360112610463576107bc611561565b602435906107c8611747565b338352600f60205284832080548381101561080c5733808652600f6020908152888720548951633db7aa8160e21b8152808a01938452918301529081906040010390fd5b928587936020936108208461086098611c0d565b9055600354855163a9059cbb60e01b81526001600160a01b0392831693810193845260208401949094529295869390911691839188918391604090910190565b03925af190811561089f5750610874575080f35b6108949060203d8111610898575b61088c81836115d9565b810190611c1a565b5080f35b503d610882565b513d84823e3d90fd5b505050346108c457816003193601126108c45751908152602090f35b5080fd5b828585346108c45760203660031901126108c4578235916108e7611747565b60065483811015610909578251630f6e5aa560e11b8152808601859052602490fd5b93610915848396611c0d565b600655338252600f60205282822061092e858254611aa1565b90556003546001600160a01b0316803b1561030a5783516340c10f1960e01b81523092810192835260208301869052918391839182908490829060400103925af180156109c8576109b4575b50505133815260208101919091527f0f6798a560793a54c3bcfe86a93cde1e73087d944c0ea20544137d4121396885908060408101610443565b6109bd90611577565b61030a57828461097a565b83513d84823e3d90fd5b50503461030a578160031936011261030a57816020936109f061154b565b92358152808552209060018060a01b0316600052825260ff81600020541690519015158152f35b80848634610be55780600319360112610be557610a32611561565b91610a3b61154b565b92610a44611747565b60018060a01b0380911693816bffffffffffffffffffffffff60a01b9186836008541617600855168091600a541617600a557f0ce23c3e399818cfee81a7ab0880f714e53d7672b08df0fa62f2843416e1ea0980600052602091600083528560002081600052835260ff86600020541615610b96575b50507fc5e2d1653feba496cf5ce3a744b90ea18acf0df3d036aba9b2f85992a14679069081600052600081528460002086600052815260ff85600020541615610b46575b5050600d541692833b156107995760248592838551968794859363180b7a4f60e11b85528401525af190811561089f5750610b365750f35b610b3f90611577565b6104635780f35b81600052600081528460002090866000525283600020600160ff198254161790558433917f2f8788117e7eff1d82e926ec794901d17c78024a50270940304540a733656f0d600080a48680610afe565b81600052600083528560002081600052835285600020600160ff1982541617905533917f2f8788117e7eff1d82e926ec794901d17c78024a50270940304540a733656f0d600080a48780610aba565b5050fd5b505050346108c45760203660031901126108c457610c05611561565b610c0d611747565b7f5ebb184165085ace46d0999c321c0aa1dff31a8e7036d770713c0c15c094d3ed91826000526000602052806000209160018060a01b0316918260005260205260ff81600020541615610c5e578380f35b8260005260006020528060002082600052602052600020600160ff1982541617905533917f2f8788117e7eff1d82e926ec794901d17c78024a50270940304540a733656f0d600080a43880808380f35b83853461046357806003193601126104635750610cc96115fb565b90805190610cd6826115a1565b60158083526020927468747470733a2f2f697066732e696f2f697066732f60581b8482015283835195869260005b858110610d515750509282603592610d2f610d4d979685610d3e9701600081528151938492016116e3565b810103908101875201856115d9565b51928284938452830190611706565b0390f35b818101840151898201850152889450879301610d04565b5050913461046357806003193601126104635750610d846115fb565b9181519060009360025460019581871c9187811680156110e5575b6020841081146110d25783875286929181156110b35750600114611052575b610dca925003846115d9565b600354845183546001600160a01b0392831693919080891c906000908a81168015611048575b6020841081146110355783855284929181156110165750600114610fb8575b610e1b925003826115d9565b865194600090600554808b1c918b8216908115610fae575b602084108214610f9b5750828952908115610f745750600114610f17575b509085889594939203610e6490876115d9565b6006549560075484600854169085600954169286600a54169487600b54169688600c541698600d541699600e549b519e8f9e8f936101c08086528501610ea991611706565b8481036020860152610eba91611706565b9201528c810360608e0152610ece91611706565b8b810360808d0152610edf91611706565b9860a08b015260c08a015260e08901526101008801526101208701526101408601526101608501526101808401526101a08301520390f35b905060056000527f036b6384b5eca791c62761152d0c79bb0604c104a5fb6f4eb0703f3154bb3db0986000995b828b10610f5e575097988998508601602001905085610e51565b81818c6020809454918c010152019a0199610f44565b60ff19166020808a0191909152999a508a9991151560051b88019091019150869050610e51565b634e487b7160e01b855260229052602484fd5b92607f1692610e33565b50600087815290918a7f8a35acfbc15ff81a39ae7d344fd709f28e8600b4aa8c65c6b64bfe7fe36bd19b5b828410610ffc57505050906020610e1b92820101610e0f565b6020929450805483858801015201910190918a8493610fe3565b60209250610e1b94915060ff191682840152151560051b820101610e0f565b634e487b7160e01b835260228952602483fd5b92607f1692610df0565b509060026000527f405787fa12a823e0f2b7631cc41b3ba8828b3321ca811111fa75cd3aa3bb5ace90876000925b82841061109957505050906020610dca92820101610dbe565b6020929450805483858a0101520191019091878693611080565b60209250610dca94915060ff191682840152151560051b820101610dbe565b634e487b7160e01b835260228652602483fd5b92607f1692610d9f565b929190503461079d578360031936011261079d576111599260209183519163ffffffff60e01b1683830152808252611126826115a1565b6009546008548551631789cd6360e01b81529687946001600160a01b039384169486948b94869493929116908401611be8565b03925af190811561089f575061116d575080f35b602090813d811161118e575b61118381836115d9565b810103126105fa5780f35b503d611179565b838584346108c457826003193601126108c4576111b061154b565b90336001600160a01b038316036111cc57906104a19135611a2d565b608490602085519162461bcd60e51b8352820152602f60248201527f416363657373436f6e74726f6c3a2063616e206f6e6c792072656e6f756e636560448201526e103937b632b9903337b91039b2b63360891b6064820152fd5b50503461030a578160031936011261030a57359061124361154b565b908284528360205261125a60018286200154611923565b600083815260208181528282206001600160a01b039094168083529390528190205460ff1615610c5e578380f35b919290503461079d57606036600319011261079d578235916044356024356112ae611747565b600354600b54855163095ea7b360e01b81526001600160a01b0391821689820190815260208082018a905292969391929183918290036040019082908d908a165af19081156114c25789916114a4575b5061132b5750505060649450600b5416905192630cc386e760e31b84528301523360248301526044820152fd5b8794878792610e1090818602918683041486151715611491578160075563ffffffff60e01b16968351918860208401523360601b6024840152603883015286605883015260588252608082019282841067ffffffffffffffff85111761147e575090889183855280600b5416908060035416906008541690823b15610799576395854b8160e01b8652608484015260a483015260c48201869052608060e4830152839182908490607f19906113e4610104820182611706565b0301925af1801561147457611436575b508051948552336020860152840152606083015260808201527f77a899b6d914cfb80b3509f1cb4918bbcc834fe214bff045c2c55ce0c19179799060a090a180f35b917f77a899b6d914cfb80b3509f1cb4918bbcc834fe214bff045c2c55ce0c19179799593919661146860a09694611577565b969193955091936113f4565b82513d89823e3d90fd5b634e487b7160e01b8a5260419052602489fd5b634e487b7160e01b895260118352602489fd5b6114bc915060203d81116108985761088c81836115d9565b386112fe565b86513d8b823e3d90fd5b50503461030a57602036600319011261030a57816020936001923581528085522001549051908152f35b935050503461030a57602036600319011261030a573563ffffffff60e01b811680910361030a5760209250637965db0b60e01b811490811561153a575b5015158152f35b6301ffc9a760e01b14905038611533565b602435906001600160a01b03821682036105fa57565b600435906001600160a01b03821682036105fa57565b67ffffffffffffffff811161158b57604052565b634e487b7160e01b600052604160045260246000fd5b6040810190811067ffffffffffffffff82111761158b57604052565b6080810190811067ffffffffffffffff82111761158b57604052565b90601f8019910116810190811067ffffffffffffffff82111761158b57604052565b60405190600060019081549182811c908084169384156116d9575b60209485841081146116c557838852879493929181156116a55750600114611649575b5050611647925003836115d9565b565b60008181527fb10e2d527612073b26eecdfd717e6a320cf44b4afac2b0732d9fcbe2b7fa0cf695935091905b81831061168d57505061164793508201013880611639565b85548884018501529485019487945091830191611675565b91505061164794925060ff191682840152151560051b8201013880611639565b634e487b7160e01b85526022600452602485fd5b91607f1691611616565b60005b8381106116f65750506000910152565b81810151838201526020016116e6565b9060209161171f815180928185528580860191016116e3565b601f01601f1916010190565b67ffffffffffffffff811161158b57601f01601f191660200190565b3360009081527fe298cb3514b0702cec56ac2053c1ecb2187cfdc8a325f22a672bc5027eadc9e2602090815260408083205490927fcab5a0bfe0b79d2c4b1c2e02599fa044d115b7511f9659307cb42769509677099160ff16156117ab5750505050565b6117b433611aeb565b918451906117c1826115bd565b6042825284820192606036853782511561190f576030845382519060019182101561190f5790607860218501536041915b8183116118a15750505061187157604861024093869361185593611846985198899376020b1b1b2b9b9a1b7b73a3937b61d1030b1b1b7bab73a1604d1b8a8601526101ee815180928c6037890191016116e3565b010360288101875201856115d9565b5192839262461bcd60e51b845260048401526024830190611706565b60648486519062461bcd60e51b82528060048301526024820152600080516020611c338339815191526044820152fd5b909192600f811660108110156118fb576f181899199a1a9b1b9c1cb0b131b232b360811b901a6118d18587611ac4565b5360041c9280156118e7576000190191906117f2565b634e487b7160e01b82526011600452602482fd5b634e487b7160e01b83526032600452602483fd5b634e487b7160e01b81526032600452602490fd5b600090808252602090828252604092838120338252835260ff84822054161561194c5750505050565b61195533611aeb565b91845190611962826115bd565b6042825284820192606036853782511561190f576030845382519060019182101561190f5790607860218501536041915b8183116119e75750505061187157604861024093869361185593611846985198899376020b1b1b2b9b9a1b7b73a3937b61d1030b1b1b7bab73a1604d1b8a8601526101ee815180928c6037890191016116e3565b909192600f811660108110156118fb576f181899199a1a9b1b9c1cb0b131b232b360811b901a611a178587611ac4565b5360041c9280156118e757600019019190611993565b9060009180835282602052604083209160018060a01b03169182845260205260ff604084205416611a5d57505050565b80835282602052604083208284526020526040832060ff1981541690557ff6391f5c32d9c69d2a47ea670b442974b53935d1edc7fd64eb21e047a839171b339380a4565b91908201809211611aae57565b634e487b7160e01b600052601160045260246000fd5b908151811015611ad5570160200190565b634e487b7160e01b600052603260045260246000fd5b604051906060820182811067ffffffffffffffff82111761158b57604052602a8252602082016040368237825115611ad557603090538151600190811015611ad557607860218401536029905b808211611b7a575050611b485790565b606460405162461bcd60e51b81526020600482015260206024820152600080516020611c338339815191526044820152fd5b9091600f81166010811015611bd3576f181899199a1a9b1b9c1cb0b131b232b360811b901a611ba98486611ac4565b5360041c918015611bbe576000190190611b38565b60246000634e487b7160e01b81526011600452fd5b60246000634e487b7160e01b81526032600452fd5b6001600160a01b039091168152604060208201819052611c0a92910190611706565b90565b91908203918211611aae57565b908160209103126105fa575180151581036105fa579056fe537472696e67733a20686578206c656e67746820696e73756666696369656e74a26469706673582212202dbb64b838d2108a4bf5df745b605082f531480ee6ba61dd0a93625ef4d2bcd664736f6c634300081400332f8788117e7eff1d82e926ec794901d17c78024a50270940304540a733656f0d405787fa12a823e0f2b7631cc41b3ba8828b3321ca811111fa75cd3aa3bb5aceb10e2d527612073b26eecdfd717e6a320cf44b4afac2b0732d9fcbe2b7fa0cf6",
        "linkReferences": {}
    },
    "methodIdentifiers": {
        "DEFAULT_ADMIN_ROLE()": "a217fddf",
        "addHardwareDevice(address)": "835fab84",
        "company()": "6904c94d",
        "finishAuction()": "430ca46f",
        "getRoleAdmin(bytes32)": "248a9ca3",
        "getURI()": "7754305c",
        "grantRole(bytes32,address)": "2f2ff15d",
        "hasRole(bytes32,address)": "91d14854",
        "increaseAllowance()": "ed91f1d0",
        "mint(uint256)": "a0712d68",
        "newAuction(uint256,uint256,uint256)": "290f000a",
        "newBid(uint256)": "e2543d1c",
        "renounceRole(bytes32,address)": "36568abe",
        "revokeRole(bytes32,address)": "d547741f",
        "setAuxiliaryContracts(address,address)": "917a1fba",
        "supportsInterface(bytes4)": "01ffc9a7",
        "transferCarbonCredits(address,uint256)": "afcdd813",
        "verifyRealWorldState(string)": "c1e8b268"
    },
    "id": 65
}