{
	"data": {
		"bytecode": {
			"linkReferences": {},
			"object": "60806040523480156200001157600080fd5b5060405162001602380380620016028339818101604052810190620000379190620003d2565b886000806101000a81548173ffffffffffffffffffffffffffffffffffffffff021916908373ffffffffffffffffffffffffffffffffffffffff16021790555087600160006101000a81548173ffffffffffffffffffffffffffffffffffffffff021916908373ffffffffffffffffffffffffffffffffffffffff1602179055508660069081620000c991906200076e565b508560079081620000db91906200076e565b5084600860006101000a81548173ffffffffffffffffffffffffffffffffffffffff021916908373ffffffffffffffffffffffffffffffffffffffff16021790555083600390816200012e91906200076e565b50826005819055508160048190555080600990816200014e91906200076e565b5033600260006101000a81548173ffffffffffffffffffffffffffffffffffffffff021916908373ffffffffffffffffffffffffffffffffffffffff16021790555050505050505050505062000855565b6000604051905090565b600080fd5b600080fd5b600073ffffffffffffffffffffffffffffffffffffffff82169050919050565b6000620001e082620001b3565b9050919050565b620001f281620001d3565b8114620001fe57600080fd5b50565b6000815190506200021281620001e7565b92915050565b600080fd5b600080fd5b6000601f19601f8301169050919050565b7f4e487b7100000000000000000000000000000000000000000000000000000000600052604160045260246000fd5b6200026d8262000222565b810181811067ffffffffffffffff821117156200028f576200028e62000233565b5b80604052505050565b6000620002a46200019f565b9050620002b2828262000262565b919050565b600067ffffffffffffffff821115620002d557620002d462000233565b5b620002e08262000222565b9050602081019050919050565b60005b838110156200030d578082015181840152602081019050620002f0565b60008484015250505050565b6000620003306200032a84620002b7565b62000298565b9050828152602081018484840111156200034f576200034e6200021d565b5b6200035c848285620002ed565b509392505050565b600082601f8301126200037c576200037b62000218565b5b81516200038e84826020860162000319565b91505092915050565b6000819050919050565b620003ac8162000397565b8114620003b857600080fd5b50565b600081519050620003cc81620003a1565b92915050565b60008060008060008060008060006101208a8c031215620003f857620003f7620001a9565b5b6000620004088c828d0162000201565b99505060206200041b8c828d0162000201565b98505060408a015167ffffffffffffffff8111156200043f576200043e620001ae565b5b6200044d8c828d0162000364565b97505060608a015167ffffffffffffffff811115620004715762000470620001ae565b5b6200047f8c828d0162000364565b9650506080620004928c828d0162000201565b95505060a08a015167ffffffffffffffff811115620004b657620004b5620001ae565b5b620004c48c828d0162000364565b94505060c0620004d78c828d01620003bb565b93505060e0620004ea8c828d01620003bb565b9250506101008a015167ffffffffffffffff8111156200050f576200050e620001ae565b5b6200051d8c828d0162000364565b9150509295985092959850929598565b600081519050919050565b7f4e487b7100000000000000000000000000000000000000000000000000000000600052602260045260246000fd5b600060028204905060018216806200058057607f821691505b60208210810362000596576200059562000538565b5b50919050565b60008190508160005260206000209050919050565b60006020601f8301049050919050565b600082821b905092915050565b600060088302620006007fffffffffffffffffffffffffffffffffffffffffffffffffffffffffffffffff82620005c1565b6200060c8683620005c1565b95508019841693508086168417925050509392505050565b6000819050919050565b60006200064f62000649620006438462000397565b62000624565b62000397565b9050919050565b6000819050919050565b6200066b836200062e565b620006836200067a8262000656565b848454620005ce565b825550505050565b600090565b6200069a6200068b565b620006a781848462000660565b505050565b5b81811015620006cf57620006c360008262000690565b600181019050620006ad565b5050565b601f8211156200071e57620006e8816200059c565b620006f384620005b1565b8101602085101562000703578190505b6200071b6200071285620005b1565b830182620006ac565b50505b505050565b600082821c905092915050565b6000620007436000198460080262000723565b1980831691505092915050565b60006200075e838362000730565b9150826002028217905092915050565b62000779826200052d565b67ffffffffffffffff81111562000795576200079462000233565b5b620007a1825462000567565b620007ae828285620006d3565b600060209050601f831160018114620007e65760008415620007d1578287015190505b620007dd858262000750565b8655506200084d565b601f198416620007f6866200059c565b60005b828110156200082057848901518255600182019150602085019450602081019050620007f9565b868310156200084057848901516200083c601f89168262000730565b8355505b6001600288020188555050505b505050505050565b610d9d80620008656000396000f3fe6080604052600436106100ab5760003560e01c80638e15f473116100645780638e15f47314610293578063d27fb607146102be578063d8b0b499146102e9578063de242ff414610314578063f5ec2eed1461033f578063fdf48f2e1461036a5761018e565b806307546172146101935780633ccfd60b146101be57806345ab331e146101d55780636bb38b28146102125780637ff9b5961461023d5780638da5cb5b146102685761018e565b3661018e5760045434146100f4576040517f08c379a00000000000000000000000000000000000000000000000000000000081526004016100eb906108b2565b60405180910390fd5b60006100ff34610395565b9050600160009054906101000a900473ffffffffffffffffffffffffffffffffffffffff1673ffffffffffffffffffffffffffffffffffffffff166340c10f1933836040518363ffffffff1660e01b815260040161015e92919061092c565b600060405180830381600087803b15801561017857600080fd5b505af115801561018c573d6000803e3d6000fd5b005b600080fd5b34801561019f57600080fd5b506101a86103ef565b6040516101b591906109b4565b60405180910390f35b3480156101ca57600080fd5b506101d3610415565b005b3480156101e157600080fd5b506101fc60048036038101906101f79190610a00565b610395565b6040516102099190610a2d565b60405180910390f35b34801561021e57600080fd5b506102276104da565b6040516102349190610ac7565b60405180910390f35b34801561024957600080fd5b50610252610568565b60405161025f9190610a2d565b60405180910390f35b34801561027457600080fd5b5061027d61056e565b60405161028a9190610ae9565b60405180910390f35b34801561029f57600080fd5b506102a8610594565b6040516102b59190610b1d565b60405180910390f35b3480156102ca57600080fd5b506102d3610633565b6040516102e09190610ae9565b60405180910390f35b3480156102f557600080fd5b506102fe610659565b60405161030b9190610ac7565b60405180910390f35b34801561032057600080fd5b506103296106e7565b6040516103369190610a2d565b60405180910390f35b34801561034b57600080fd5b506103546106ed565b6040516103619190610ac7565b60405180910390f35b34801561037657600080fd5b5061037f61077b565b60405161038c9190610ac7565b60405180910390f35b6000806103a0610594565b90506000670de0b6b3a764000082856103b99190610b67565b6103c39190610bd8565b90506000612710600554836103d89190610bd8565b6103e29190610bd8565b9050809350505050919050565b600160009054906101000a900473ffffffffffffffffffffffffffffffffffffffff1681565b600860009054906101000a900473ffffffffffffffffffffffffffffffffffffffff1673ffffffffffffffffffffffffffffffffffffffff163373ffffffffffffffffffffffffffffffffffffffff161461046f57600080fd5b600260009054906101000a900473ffffffffffffffffffffffffffffffffffffffff1673ffffffffffffffffffffffffffffffffffffffff166108fc479081150290604051600060405180830381858888f193505050501580156104d7573d6000803e3d6000fd5b50565b600980546104e790610c38565b80601f016020809104026020016040519081016040528092919081815260200182805461051390610c38565b80156105605780601f1061053557610100808354040283529160200191610560565b820191906000526020600020905b81548152906001019060200180831161054357829003601f168201915b505050505081565b60055481565b600260009054906101000a900473ffffffffffffffffffffffffffffffffffffffff1681565b60008060008054906101000a900473ffffffffffffffffffffffffffffffffffffffff1673ffffffffffffffffffffffffffffffffffffffff1663feaf968c6040518163ffffffff1660e01b815260040160a060405180830381865afa158015610602573d6000803e3d6000fd5b505050506040513d601f19601f820116820180604052508101906106269190610cec565b5050509150508091505090565b600860009054906101000a900473ffffffffffffffffffffffffffffffffffffffff1681565b6003805461066690610c38565b80601f016020809104026020016040519081016040528092919081815260200182805461069290610c38565b80156106df5780601f106106b4576101008083540402835291602001916106df565b820191906000526020600020905b8154815290600101906020018083116106c257829003601f168201915b505050505081565b60045481565b600680546106fa90610c38565b80601f016020809104026020016040519081016040528092919081815260200182805461072690610c38565b80156107735780601f1061074857610100808354040283529160200191610773565b820191906000526020600020905b81548152906001019060200180831161075657829003601f168201915b505050505081565b6007805461078890610c38565b80601f01602080910402602001604051908101604052809291908181526020018280546107b490610c38565b80156108015780601f106107d657610100808354040283529160200191610801565b820191906000526020600020905b8154815290600101906020018083116107e457829003601f168201915b505050505081565b600082825260208201905092915050565b7f5468697320636f6d70616e7920646f6573206e6f74206861766520656e6f756760008201527f6820746f6b656e7320746f206361727279206f757420746869732073616c652060208201527f6f7065726174696f6e2e00000000000000000000000000000000000000000000604082015250565b600061089c604a83610809565b91506108a78261081a565b606082019050919050565b600060208201905081810360008301526108cb8161088f565b9050919050565b600073ffffffffffffffffffffffffffffffffffffffff82169050919050565b60006108fd826108d2565b9050919050565b61090d816108f2565b82525050565b6000819050919050565b61092681610913565b82525050565b60006040820190506109416000830185610904565b61094e602083018461091d565b9392505050565b6000819050919050565b600061097a610975610970846108d2565b610955565b6108d2565b9050919050565b600061098c8261095f565b9050919050565b600061099e82610981565b9050919050565b6109ae81610993565b82525050565b60006020820190506109c960008301846109a5565b92915050565b600080fd5b6109dd81610913565b81146109e857600080fd5b50565b6000813590506109fa816109d4565b92915050565b600060208284031215610a1657610a156109cf565b5b6000610a24848285016109eb565b91505092915050565b6000602082019050610a42600083018461091d565b92915050565b600081519050919050565b60005b83811015610a71578082015181840152602081019050610a56565b60008484015250505050565b6000601f19601f8301169050919050565b6000610a9982610a48565b610aa38185610809565b9350610ab3818560208601610a53565b610abc81610a7d565b840191505092915050565b60006020820190508181036000830152610ae18184610a8e565b905092915050565b6000602082019050610afe6000830184610904565b92915050565b6000819050919050565b610b1781610b04565b82525050565b6000602082019050610b326000830184610b0e565b92915050565b7f4e487b7100000000000000000000000000000000000000000000000000000000600052601160045260246000fd5b6000610b7282610913565b9150610b7d83610913565b9250828202610b8b81610913565b91508282048414831517610ba257610ba1610b38565b5b5092915050565b7f4e487b7100000000000000000000000000000000000000000000000000000000600052601260045260246000fd5b6000610be382610913565b9150610bee83610913565b925082610bfe57610bfd610ba9565b5b828204905092915050565b7f4e487b7100000000000000000000000000000000000000000000000000000000600052602260045260246000fd5b60006002820490506001821680610c5057607f821691505b602082108103610c6357610c62610c09565b5b50919050565b600069ffffffffffffffffffff82169050919050565b610c8881610c69565b8114610c9357600080fd5b50565b600081519050610ca581610c7f565b92915050565b610cb481610b04565b8114610cbf57600080fd5b50565b600081519050610cd181610cab565b92915050565b600081519050610ce6816109d4565b92915050565b600080600080600060a08688031215610d0857610d076109cf565b5b6000610d1688828901610c96565b9550506020610d2788828901610cc2565b9450506040610d3888828901610cd7565b9350506060610d4988828901610cd7565b9250506080610d5a88828901610c96565b915050929550929590935056fea2646970667358221220cb4008a541ad67077329dfb641a55051ba18cafc6f6c16da46faa87a2e8c122f64736f6c63430008130033",
			"opcodes": "PUSH1 0x80 PUSH1 0x40 MSTORE CALLVALUE DUP1 ISZERO PUSH3 0x11 JUMPI PUSH1 0x0 DUP1 REVERT JUMPDEST POP PUSH1 0x40 MLOAD PUSH3 0x1602 CODESIZE SUB DUP1 PUSH3 0x1602 DUP4 CODECOPY DUP2 DUP2 ADD PUSH1 0x40 MSTORE DUP2 ADD SWAP1 PUSH3 0x37 SWAP2 SWAP1 PUSH3 0x3D2 JUMP JUMPDEST DUP9 PUSH1 0x0 DUP1 PUSH2 0x100 EXP DUP2 SLOAD DUP2 PUSH20 0xFFFFFFFFFFFFFFFFFFFFFFFFFFFFFFFFFFFFFFFF MUL NOT AND SWAP1 DUP4 PUSH20 0xFFFFFFFFFFFFFFFFFFFFFFFFFFFFFFFFFFFFFFFF AND MUL OR SWAP1 SSTORE POP DUP8 PUSH1 0x1 PUSH1 0x0 PUSH2 0x100 EXP DUP2 SLOAD DUP2 PUSH20 0xFFFFFFFFFFFFFFFFFFFFFFFFFFFFFFFFFFFFFFFF MUL NOT AND SWAP1 DUP4 PUSH20 0xFFFFFFFFFFFFFFFFFFFFFFFFFFFFFFFFFFFFFFFF AND MUL OR SWAP1 SSTORE POP DUP7 PUSH1 0x6 SWAP1 DUP2 PUSH3 0xC9 SWAP2 SWAP1 PUSH3 0x76E JUMP JUMPDEST POP DUP6 PUSH1 0x7 SWAP1 DUP2 PUSH3 0xDB SWAP2 SWAP1 PUSH3 0x76E JUMP JUMPDEST POP DUP5 PUSH1 0x8 PUSH1 0x0 PUSH2 0x100 EXP DUP2 SLOAD DUP2 PUSH20 0xFFFFFFFFFFFFFFFFFFFFFFFFFFFFFFFFFFFFFFFF MUL NOT AND SWAP1 DUP4 PUSH20 0xFFFFFFFFFFFFFFFFFFFFFFFFFFFFFFFFFFFFFFFF AND MUL OR SWAP1 SSTORE POP DUP4 PUSH1 0x3 SWAP1 DUP2 PUSH3 0x12E SWAP2 SWAP1 PUSH3 0x76E JUMP JUMPDEST POP DUP3 PUSH1 0x5 DUP2 SWAP1 SSTORE POP DUP2 PUSH1 0x4 DUP2 SWAP1 SSTORE POP DUP1 PUSH1 0x9 SWAP1 DUP2 PUSH3 0x14E SWAP2 SWAP1 PUSH3 0x76E JUMP JUMPDEST POP CALLER PUSH1 0x2 PUSH1 0x0 PUSH2 0x100 EXP DUP2 SLOAD DUP2 PUSH20 0xFFFFFFFFFFFFFFFFFFFFFFFFFFFFFFFFFFFFFFFF MUL NOT AND SWAP1 DUP4 PUSH20 0xFFFFFFFFFFFFFFFFFFFFFFFFFFFFFFFFFFFFFFFF AND MUL OR SWAP1 SSTORE POP POP POP POP POP POP POP POP POP POP PUSH3 0x855 JUMP JUMPDEST PUSH1 0x0 PUSH1 0x40 MLOAD SWAP1 POP SWAP1 JUMP JUMPDEST PUSH1 0x0 DUP1 REVERT JUMPDEST PUSH1 0x0 DUP1 REVERT JUMPDEST PUSH1 0x0 PUSH20 0xFFFFFFFFFFFFFFFFFFFFFFFFFFFFFFFFFFFFFFFF DUP3 AND SWAP1 POP SWAP2 SWAP1 POP JUMP JUMPDEST PUSH1 0x0 PUSH3 0x1E0 DUP3 PUSH3 0x1B3 JUMP JUMPDEST SWAP1 POP SWAP2 SWAP1 POP JUMP JUMPDEST PUSH3 0x1F2 DUP2 PUSH3 0x1D3 JUMP JUMPDEST DUP2 EQ PUSH3 0x1FE JUMPI PUSH1 0x0 DUP1 REVERT JUMPDEST POP JUMP JUMPDEST PUSH1 0x0 DUP2 MLOAD SWAP1 POP PUSH3 0x212 DUP2 PUSH3 0x1E7 JUMP JUMPDEST SWAP3 SWAP2 POP POP JUMP JUMPDEST PUSH1 0x0 DUP1 REVERT JUMPDEST PUSH1 0x0 DUP1 REVERT JUMPDEST PUSH1 0x0 PUSH1 0x1F NOT PUSH1 0x1F DUP4 ADD AND SWAP1 POP SWAP2 SWAP1 POP JUMP JUMPDEST PUSH32 0x4E487B7100000000000000000000000000000000000000000000000000000000 PUSH1 0x0 MSTORE PUSH1 0x41 PUSH1 0x4 MSTORE PUSH1 0x24 PUSH1 0x0 REVERT JUMPDEST PUSH3 0x26D DUP3 PUSH3 0x222 JUMP JUMPDEST DUP2 ADD DUP2 DUP2 LT PUSH8 0xFFFFFFFFFFFFFFFF DUP3 GT OR ISZERO PUSH3 0x28F JUMPI PUSH3 0x28E PUSH3 0x233 JUMP JUMPDEST JUMPDEST DUP1 PUSH1 0x40 MSTORE POP POP POP JUMP JUMPDEST PUSH1 0x0 PUSH3 0x2A4 PUSH3 0x19F JUMP JUMPDEST SWAP1 POP PUSH3 0x2B2 DUP3 DUP3 PUSH3 0x262 JUMP JUMPDEST SWAP2 SWAP1 POP JUMP JUMPDEST PUSH1 0x0 PUSH8 0xFFFFFFFFFFFFFFFF DUP3 GT ISZERO PUSH3 0x2D5 JUMPI PUSH3 0x2D4 PUSH3 0x233 JUMP JUMPDEST JUMPDEST PUSH3 0x2E0 DUP3 PUSH3 0x222 JUMP JUMPDEST SWAP1 POP PUSH1 0x20 DUP2 ADD SWAP1 POP SWAP2 SWAP1 POP JUMP JUMPDEST PUSH1 0x0 JUMPDEST DUP4 DUP2 LT ISZERO PUSH3 0x30D JUMPI DUP1 DUP3 ADD MLOAD DUP2 DUP5 ADD MSTORE PUSH1 0x20 DUP2 ADD SWAP1 POP PUSH3 0x2F0 JUMP JUMPDEST PUSH1 0x0 DUP5 DUP5 ADD MSTORE POP POP POP POP JUMP JUMPDEST PUSH1 0x0 PUSH3 0x330 PUSH3 0x32A DUP5 PUSH3 0x2B7 JUMP JUMPDEST PUSH3 0x298 JUMP JUMPDEST SWAP1 POP DUP3 DUP2 MSTORE PUSH1 0x20 DUP2 ADD DUP5 DUP5 DUP5 ADD GT ISZERO PUSH3 0x34F JUMPI PUSH3 0x34E PUSH3 0x21D JUMP JUMPDEST JUMPDEST PUSH3 0x35C DUP5 DUP3 DUP6 PUSH3 0x2ED JUMP JUMPDEST POP SWAP4 SWAP3 POP POP POP JUMP JUMPDEST PUSH1 0x0 DUP3 PUSH1 0x1F DUP4 ADD SLT PUSH3 0x37C JUMPI PUSH3 0x37B PUSH3 0x218 JUMP JUMPDEST JUMPDEST DUP2 MLOAD PUSH3 0x38E DUP5 DUP3 PUSH1 0x20 DUP7 ADD PUSH3 0x319 JUMP JUMPDEST SWAP2 POP POP SWAP3 SWAP2 POP POP JUMP JUMPDEST PUSH1 0x0 DUP2 SWAP1 POP SWAP2 SWAP1 POP JUMP JUMPDEST PUSH3 0x3AC DUP2 PUSH3 0x397 JUMP JUMPDEST DUP2 EQ PUSH3 0x3B8 JUMPI PUSH1 0x0 DUP1 REVERT JUMPDEST POP JUMP JUMPDEST PUSH1 0x0 DUP2 MLOAD SWAP1 POP PUSH3 0x3CC DUP2 PUSH3 0x3A1 JUMP JUMPDEST SWAP3 SWAP2 POP POP JUMP JUMPDEST PUSH1 0x0 DUP1 PUSH1 0x0 DUP1 PUSH1 0x0 DUP1 PUSH1 0x0 DUP1 PUSH1 0x0 PUSH2 0x120 DUP11 DUP13 SUB SLT ISZERO PUSH3 0x3F8 JUMPI PUSH3 0x3F7 PUSH3 0x1A9 JUMP JUMPDEST JUMPDEST PUSH1 0x0 PUSH3 0x408 DUP13 DUP3 DUP14 ADD PUSH3 0x201 JUMP JUMPDEST SWAP10 POP POP PUSH1 0x20 PUSH3 0x41B DUP13 DUP3 DUP14 ADD PUSH3 0x201 JUMP JUMPDEST SWAP9 POP POP PUSH1 0x40 DUP11 ADD MLOAD PUSH8 0xFFFFFFFFFFFFFFFF DUP2 GT ISZERO PUSH3 0x43F JUMPI PUSH3 0x43E PUSH3 0x1AE JUMP JUMPDEST JUMPDEST PUSH3 0x44D DUP13 DUP3 DUP14 ADD PUSH3 0x364 JUMP JUMPDEST SWAP8 POP POP PUSH1 0x60 DUP11 ADD MLOAD PUSH8 0xFFFFFFFFFFFFFFFF DUP2 GT ISZERO PUSH3 0x471 JUMPI PUSH3 0x470 PUSH3 0x1AE JUMP JUMPDEST JUMPDEST PUSH3 0x47F DUP13 DUP3 DUP14 ADD PUSH3 0x364 JUMP JUMPDEST SWAP7 POP POP PUSH1 0x80 PUSH3 0x492 DUP13 DUP3 DUP14 ADD PUSH3 0x201 JUMP JUMPDEST SWAP6 POP POP PUSH1 0xA0 DUP11 ADD MLOAD PUSH8 0xFFFFFFFFFFFFFFFF DUP2 GT ISZERO PUSH3 0x4B6 JUMPI PUSH3 0x4B5 PUSH3 0x1AE JUMP JUMPDEST JUMPDEST PUSH3 0x4C4 DUP13 DUP3 DUP14 ADD PUSH3 0x364 JUMP JUMPDEST SWAP5 POP POP PUSH1 0xC0 PUSH3 0x4D7 DUP13 DUP3 DUP14 ADD PUSH3 0x3BB JUMP JUMPDEST SWAP4 POP POP PUSH1 0xE0 PUSH3 0x4EA DUP13 DUP3 DUP14 ADD PUSH3 0x3BB JUMP JUMPDEST SWAP3 POP POP PUSH2 0x100 DUP11 ADD MLOAD PUSH8 0xFFFFFFFFFFFFFFFF DUP2 GT ISZERO PUSH3 0x50F JUMPI PUSH3 0x50E PUSH3 0x1AE JUMP JUMPDEST JUMPDEST PUSH3 0x51D DUP13 DUP3 DUP14 ADD PUSH3 0x364 JUMP JUMPDEST SWAP2 POP POP SWAP3 SWAP6 SWAP9 POP SWAP3 SWAP6 SWAP9 POP SWAP3 SWAP6 SWAP9 JUMP JUMPDEST PUSH1 0x0 DUP2 MLOAD SWAP1 POP SWAP2 SWAP1 POP JUMP JUMPDEST PUSH32 0x4E487B7100000000000000000000000000000000000000000000000000000000 PUSH1 0x0 MSTORE PUSH1 0x22 PUSH1 0x4 MSTORE PUSH1 0x24 PUSH1 0x0 REVERT JUMPDEST PUSH1 0x0 PUSH1 0x2 DUP3 DIV SWAP1 POP PUSH1 0x1 DUP3 AND DUP1 PUSH3 0x580 JUMPI PUSH1 0x7F DUP3 AND SWAP2 POP JUMPDEST PUSH1 0x20 DUP3 LT DUP2 SUB PUSH3 0x596 JUMPI PUSH3 0x595 PUSH3 0x538 JUMP JUMPDEST JUMPDEST POP SWAP2 SWAP1 POP JUMP JUMPDEST PUSH1 0x0 DUP2 SWAP1 POP DUP2 PUSH1 0x0 MSTORE PUSH1 0x20 PUSH1 0x0 KECCAK256 SWAP1 POP SWAP2 SWAP1 POP JUMP JUMPDEST PUSH1 0x0 PUSH1 0x20 PUSH1 0x1F DUP4 ADD DIV SWAP1 POP SWAP2 SWAP1 POP JUMP JUMPDEST PUSH1 0x0 DUP3 DUP3 SHL SWAP1 POP SWAP3 SWAP2 POP POP JUMP JUMPDEST PUSH1 0x0 PUSH1 0x8 DUP4 MUL PUSH3 0x600 PUSH32 0xFFFFFFFFFFFFFFFFFFFFFFFFFFFFFFFFFFFFFFFFFFFFFFFFFFFFFFFFFFFFFFFF DUP3 PUSH3 0x5C1 JUMP JUMPDEST PUSH3 0x60C DUP7 DUP4 PUSH3 0x5C1 JUMP JUMPDEST SWAP6 POP DUP1 NOT DUP5 AND SWAP4 POP DUP1 DUP7 AND DUP5 OR SWAP3 POP POP POP SWAP4 SWAP3 POP POP POP JUMP JUMPDEST PUSH1 0x0 DUP2 SWAP1 POP SWAP2 SWAP1 POP JUMP JUMPDEST PUSH1 0x0 PUSH3 0x64F PUSH3 0x649 PUSH3 0x643 DUP5 PUSH3 0x397 JUMP JUMPDEST PUSH3 0x624 JUMP JUMPDEST PUSH3 0x397 JUMP JUMPDEST SWAP1 POP SWAP2 SWAP1 POP JUMP JUMPDEST PUSH1 0x0 DUP2 SWAP1 POP SWAP2 SWAP1 POP JUMP JUMPDEST PUSH3 0x66B DUP4 PUSH3 0x62E JUMP JUMPDEST PUSH3 0x683 PUSH3 0x67A DUP3 PUSH3 0x656 JUMP JUMPDEST DUP5 DUP5 SLOAD PUSH3 0x5CE JUMP JUMPDEST DUP3 SSTORE POP POP POP POP JUMP JUMPDEST PUSH1 0x0 SWAP1 JUMP JUMPDEST PUSH3 0x69A PUSH3 0x68B JUMP JUMPDEST PUSH3 0x6A7 DUP2 DUP5 DUP5 PUSH3 0x660 JUMP JUMPDEST POP POP POP JUMP JUMPDEST JUMPDEST DUP2 DUP2 LT ISZERO PUSH3 0x6CF JUMPI PUSH3 0x6C3 PUSH1 0x0 DUP3 PUSH3 0x690 JUMP JUMPDEST PUSH1 0x1 DUP2 ADD SWAP1 POP PUSH3 0x6AD JUMP JUMPDEST POP POP JUMP JUMPDEST PUSH1 0x1F DUP3 GT ISZERO PUSH3 0x71E JUMPI PUSH3 0x6E8 DUP2 PUSH3 0x59C JUMP JUMPDEST PUSH3 0x6F3 DUP5 PUSH3 0x5B1 JUMP JUMPDEST DUP2 ADD PUSH1 0x20 DUP6 LT ISZERO PUSH3 0x703 JUMPI DUP2 SWAP1 POP JUMPDEST PUSH3 0x71B PUSH3 0x712 DUP6 PUSH3 0x5B1 JUMP JUMPDEST DUP4 ADD DUP3 PUSH3 0x6AC JUMP JUMPDEST POP POP JUMPDEST POP POP POP JUMP JUMPDEST PUSH1 0x0 DUP3 DUP3 SHR SWAP1 POP SWAP3 SWAP2 POP POP JUMP JUMPDEST PUSH1 0x0 PUSH3 0x743 PUSH1 0x0 NOT DUP5 PUSH1 0x8 MUL PUSH3 0x723 JUMP JUMPDEST NOT DUP1 DUP4 AND SWAP2 POP POP SWAP3 SWAP2 POP POP JUMP JUMPDEST PUSH1 0x0 PUSH3 0x75E DUP4 DUP4 PUSH3 0x730 JUMP JUMPDEST SWAP2 POP DUP3 PUSH1 0x2 MUL DUP3 OR SWAP1 POP SWAP3 SWAP2 POP POP JUMP JUMPDEST PUSH3 0x779 DUP3 PUSH3 0x52D JUMP JUMPDEST PUSH8 0xFFFFFFFFFFFFFFFF DUP2 GT ISZERO PUSH3 0x795 JUMPI PUSH3 0x794 PUSH3 0x233 JUMP JUMPDEST JUMPDEST PUSH3 0x7A1 DUP3 SLOAD PUSH3 0x567 JUMP JUMPDEST PUSH3 0x7AE DUP3 DUP3 DUP6 PUSH3 0x6D3 JUMP JUMPDEST PUSH1 0x0 PUSH1 0x20 SWAP1 POP PUSH1 0x1F DUP4 GT PUSH1 0x1 DUP2 EQ PUSH3 0x7E6 JUMPI PUSH1 0x0 DUP5 ISZERO PUSH3 0x7D1 JUMPI DUP3 DUP8 ADD MLOAD SWAP1 POP JUMPDEST PUSH3 0x7DD DUP6 DUP3 PUSH3 0x750 JUMP JUMPDEST DUP7 SSTORE POP PUSH3 0x84D JUMP JUMPDEST PUSH1 0x1F NOT DUP5 AND PUSH3 0x7F6 DUP7 PUSH3 0x59C JUMP JUMPDEST PUSH1 0x0 JUMPDEST DUP3 DUP2 LT ISZERO PUSH3 0x820 JUMPI DUP5 DUP10 ADD MLOAD DUP3 SSTORE PUSH1 0x1 DUP3 ADD SWAP2 POP PUSH1 0x20 DUP6 ADD SWAP5 POP PUSH1 0x20 DUP2 ADD SWAP1 POP PUSH3 0x7F9 JUMP JUMPDEST DUP7 DUP4 LT ISZERO PUSH3 0x840 JUMPI DUP5 DUP10 ADD MLOAD PUSH3 0x83C PUSH1 0x1F DUP10 AND DUP3 PUSH3 0x730 JUMP JUMPDEST DUP4 SSTORE POP JUMPDEST PUSH1 0x1 PUSH1 0x2 DUP9 MUL ADD DUP9 SSTORE POP POP POP JUMPDEST POP POP POP POP POP POP JUMP JUMPDEST PUSH2 0xD9D DUP1 PUSH3 0x865 PUSH1 0x0 CODECOPY PUSH1 0x0 RETURN INVALID PUSH1 0x80 PUSH1 0x40 MSTORE PUSH1 0x4 CALLDATASIZE LT PUSH2 0xAB JUMPI PUSH1 0x0 CALLDATALOAD PUSH1 0xE0 SHR DUP1 PUSH4 0x8E15F473 GT PUSH2 0x64 JUMPI DUP1 PUSH4 0x8E15F473 EQ PUSH2 0x293 JUMPI DUP1 PUSH4 0xD27FB607 EQ PUSH2 0x2BE JUMPI DUP1 PUSH4 0xD8B0B499 EQ PUSH2 0x2E9 JUMPI DUP1 PUSH4 0xDE242FF4 EQ PUSH2 0x314 JUMPI DUP1 PUSH4 0xF5EC2EED EQ PUSH2 0x33F JUMPI DUP1 PUSH4 0xFDF48F2E EQ PUSH2 0x36A JUMPI PUSH2 0x18E JUMP JUMPDEST DUP1 PUSH4 0x7546172 EQ PUSH2 0x193 JUMPI DUP1 PUSH4 0x3CCFD60B EQ PUSH2 0x1BE JUMPI DUP1 PUSH4 0x45AB331E EQ PUSH2 0x1D5 JUMPI DUP1 PUSH4 0x6BB38B28 EQ PUSH2 0x212 JUMPI DUP1 PUSH4 0x7FF9B596 EQ PUSH2 0x23D JUMPI DUP1 PUSH4 0x8DA5CB5B EQ PUSH2 0x268 JUMPI PUSH2 0x18E JUMP JUMPDEST CALLDATASIZE PUSH2 0x18E JUMPI PUSH1 0x4 SLOAD CALLVALUE EQ PUSH2 0xF4 JUMPI PUSH1 0x40 MLOAD PUSH32 0x8C379A000000000000000000000000000000000000000000000000000000000 DUP2 MSTORE PUSH1 0x4 ADD PUSH2 0xEB SWAP1 PUSH2 0x8B2 JUMP JUMPDEST PUSH1 0x40 MLOAD DUP1 SWAP2 SUB SWAP1 REVERT JUMPDEST PUSH1 0x0 PUSH2 0xFF CALLVALUE PUSH2 0x395 JUMP JUMPDEST SWAP1 POP PUSH1 0x1 PUSH1 0x0 SWAP1 SLOAD SWAP1 PUSH2 0x100 EXP SWAP1 DIV PUSH20 0xFFFFFFFFFFFFFFFFFFFFFFFFFFFFFFFFFFFFFFFF AND PUSH20 0xFFFFFFFFFFFFFFFFFFFFFFFFFFFFFFFFFFFFFFFF AND PUSH4 0x40C10F19 CALLER DUP4 PUSH1 0x40 MLOAD DUP4 PUSH4 0xFFFFFFFF AND PUSH1 0xE0 SHL DUP2 MSTORE PUSH1 0x4 ADD PUSH2 0x15E SWAP3 SWAP2 SWAP1 PUSH2 0x92C JUMP JUMPDEST PUSH1 0x0 PUSH1 0x40 MLOAD DUP1 DUP4 SUB DUP2 PUSH1 0x0 DUP8 DUP1 EXTCODESIZE ISZERO DUP1 ISZERO PUSH2 0x178 JUMPI PUSH1 0x0 DUP1 REVERT JUMPDEST POP GAS CALL ISZERO DUP1 ISZERO PUSH2 0x18C JUMPI RETURNDATASIZE PUSH1 0x0 DUP1 RETURNDATACOPY RETURNDATASIZE PUSH1 0x0 REVERT JUMPDEST STOP JUMPDEST PUSH1 0x0 DUP1 REVERT JUMPDEST CALLVALUE DUP1 ISZERO PUSH2 0x19F JUMPI PUSH1 0x0 DUP1 REVERT JUMPDEST POP PUSH2 0x1A8 PUSH2 0x3EF JUMP JUMPDEST PUSH1 0x40 MLOAD PUSH2 0x1B5 SWAP2 SWAP1 PUSH2 0x9B4 JUMP JUMPDEST PUSH1 0x40 MLOAD DUP1 SWAP2 SUB SWAP1 RETURN JUMPDEST CALLVALUE DUP1 ISZERO PUSH2 0x1CA JUMPI PUSH1 0x0 DUP1 REVERT JUMPDEST POP PUSH2 0x1D3 PUSH2 0x415 JUMP JUMPDEST STOP JUMPDEST CALLVALUE DUP1 ISZERO PUSH2 0x1E1 JUMPI PUSH1 0x0 DUP1 REVERT JUMPDEST POP PUSH2 0x1FC PUSH1 0x4 DUP1 CALLDATASIZE SUB DUP2 ADD SWAP1 PUSH2 0x1F7 SWAP2 SWAP1 PUSH2 0xA00 JUMP JUMPDEST PUSH2 0x395 JUMP JUMPDEST PUSH1 0x40 MLOAD PUSH2 0x209 SWAP2 SWAP1 PUSH2 0xA2D JUMP JUMPDEST PUSH1 0x40 MLOAD DUP1 SWAP2 SUB SWAP1 RETURN JUMPDEST CALLVALUE DUP1 ISZERO PUSH2 0x21E JUMPI PUSH1 0x0 DUP1 REVERT JUMPDEST POP PUSH2 0x227 PUSH2 0x4DA JUMP JUMPDEST PUSH1 0x40 MLOAD PUSH2 0x234 SWAP2 SWAP1 PUSH2 0xAC7 JUMP JUMPDEST PUSH1 0x40 MLOAD DUP1 SWAP2 SUB SWAP1 RETURN JUMPDEST CALLVALUE DUP1 ISZERO PUSH2 0x249 JUMPI PUSH1 0x0 DUP1 REVERT JUMPDEST POP PUSH2 0x252 PUSH2 0x568 JUMP JUMPDEST PUSH1 0x40 MLOAD PUSH2 0x25F SWAP2 SWAP1 PUSH2 0xA2D JUMP JUMPDEST PUSH1 0x40 MLOAD DUP1 SWAP2 SUB SWAP1 RETURN JUMPDEST CALLVALUE DUP1 ISZERO PUSH2 0x274 JUMPI PUSH1 0x0 DUP1 REVERT JUMPDEST POP PUSH2 0x27D PUSH2 0x56E JUMP JUMPDEST PUSH1 0x40 MLOAD PUSH2 0x28A SWAP2 SWAP1 PUSH2 0xAE9 JUMP JUMPDEST PUSH1 0x40 MLOAD DUP1 SWAP2 SUB SWAP1 RETURN JUMPDEST CALLVALUE DUP1 ISZERO PUSH2 0x29F JUMPI PUSH1 0x0 DUP1 REVERT JUMPDEST POP PUSH2 0x2A8 PUSH2 0x594 JUMP JUMPDEST PUSH1 0x40 MLOAD PUSH2 0x2B5 SWAP2 SWAP1 PUSH2 0xB1D JUMP JUMPDEST PUSH1 0x40 MLOAD DUP1 SWAP2 SUB SWAP1 RETURN JUMPDEST CALLVALUE DUP1 ISZERO PUSH2 0x2CA JUMPI PUSH1 0x0 DUP1 REVERT JUMPDEST POP PUSH2 0x2D3 PUSH2 0x633 JUMP JUMPDEST PUSH1 0x40 MLOAD PUSH2 0x2E0 SWAP2 SWAP1 PUSH2 0xAE9 JUMP JUMPDEST PUSH1 0x40 MLOAD DUP1 SWAP2 SUB SWAP1 RETURN JUMPDEST CALLVALUE DUP1 ISZERO PUSH2 0x2F5 JUMPI PUSH1 0x0 DUP1 REVERT JUMPDEST POP PUSH2 0x2FE PUSH2 0x659 JUMP JUMPDEST PUSH1 0x40 MLOAD PUSH2 0x30B SWAP2 SWAP1 PUSH2 0xAC7 JUMP JUMPDEST PUSH1 0x40 MLOAD DUP1 SWAP2 SUB SWAP1 RETURN JUMPDEST CALLVALUE DUP1 ISZERO PUSH2 0x320 JUMPI PUSH1 0x0 DUP1 REVERT JUMPDEST POP PUSH2 0x329 PUSH2 0x6E7 JUMP JUMPDEST PUSH1 0x40 MLOAD PUSH2 0x336 SWAP2 SWAP1 PUSH2 0xA2D JUMP JUMPDEST PUSH1 0x40 MLOAD DUP1 SWAP2 SUB SWAP1 RETURN JUMPDEST CALLVALUE DUP1 ISZERO PUSH2 0x34B JUMPI PUSH1 0x0 DUP1 REVERT JUMPDEST POP PUSH2 0x354 PUSH2 0x6ED JUMP JUMPDEST PUSH1 0x40 MLOAD PUSH2 0x361 SWAP2 SWAP1 PUSH2 0xAC7 JUMP JUMPDEST PUSH1 0x40 MLOAD DUP1 SWAP2 SUB SWAP1 RETURN JUMPDEST CALLVALUE DUP1 ISZERO PUSH2 0x376 JUMPI PUSH1 0x0 DUP1 REVERT JUMPDEST POP PUSH2 0x37F PUSH2 0x77B JUMP JUMPDEST PUSH1 0x40 MLOAD PUSH2 0x38C SWAP2 SWAP1 PUSH2 0xAC7 JUMP JUMPDEST PUSH1 0x40 MLOAD DUP1 SWAP2 SUB SWAP1 RETURN JUMPDEST PUSH1 0x0 DUP1 PUSH2 0x3A0 PUSH2 0x594 JUMP JUMPDEST SWAP1 POP PUSH1 0x0 PUSH8 0xDE0B6B3A7640000 DUP3 DUP6 PUSH2 0x3B9 SWAP2 SWAP1 PUSH2 0xB67 JUMP JUMPDEST PUSH2 0x3C3 SWAP2 SWAP1 PUSH2 0xBD8 JUMP JUMPDEST SWAP1 POP PUSH1 0x0 PUSH2 0x2710 PUSH1 0x5 SLOAD DUP4 PUSH2 0x3D8 SWAP2 SWAP1 PUSH2 0xBD8 JUMP JUMPDEST PUSH2 0x3E2 SWAP2 SWAP1 PUSH2 0xBD8 JUMP JUMPDEST SWAP1 POP DUP1 SWAP4 POP POP POP POP SWAP2 SWAP1 POP JUMP JUMPDEST PUSH1 0x1 PUSH1 0x0 SWAP1 SLOAD SWAP1 PUSH2 0x100 EXP SWAP1 DIV PUSH20 0xFFFFFFFFFFFFFFFFFFFFFFFFFFFFFFFFFFFFFFFF AND DUP2 JUMP JUMPDEST PUSH1 0x8 PUSH1 0x0 SWAP1 SLOAD SWAP1 PUSH2 0x100 EXP SWAP1 DIV PUSH20 0xFFFFFFFFFFFFFFFFFFFFFFFFFFFFFFFFFFFFFFFF AND PUSH20 0xFFFFFFFFFFFFFFFFFFFFFFFFFFFFFFFFFFFFFFFF AND CALLER PUSH20 0xFFFFFFFFFFFFFFFFFFFFFFFFFFFFFFFFFFFFFFFF AND EQ PUSH2 0x46F JUMPI PUSH1 0x0 DUP1 REVERT JUMPDEST PUSH1 0x2 PUSH1 0x0 SWAP1 SLOAD SWAP1 PUSH2 0x100 EXP SWAP1 DIV PUSH20 0xFFFFFFFFFFFFFFFFFFFFFFFFFFFFFFFFFFFFFFFF AND PUSH20 0xFFFFFFFFFFFFFFFFFFFFFFFFFFFFFFFFFFFFFFFF AND PUSH2 0x8FC SELFBALANCE SWAP1 DUP2 ISZERO MUL SWAP1 PUSH1 0x40 MLOAD PUSH1 0x0 PUSH1 0x40 MLOAD DUP1 DUP4 SUB DUP2 DUP6 DUP9 DUP9 CALL SWAP4 POP POP POP POP ISZERO DUP1 ISZERO PUSH2 0x4D7 JUMPI RETURNDATASIZE PUSH1 0x0 DUP1 RETURNDATACOPY RETURNDATASIZE PUSH1 0x0 REVERT JUMPDEST POP JUMP JUMPDEST PUSH1 0x9 DUP1 SLOAD PUSH2 0x4E7 SWAP1 PUSH2 0xC38 JUMP JUMPDEST DUP1 PUSH1 0x1F ADD PUSH1 0x20 DUP1 SWAP2 DIV MUL PUSH1 0x20 ADD PUSH1 0x40 MLOAD SWAP1 DUP2 ADD PUSH1 0x40 MSTORE DUP1 SWAP3 SWAP2 SWAP1 DUP2 DUP2 MSTORE PUSH1 0x20 ADD DUP3 DUP1 SLOAD PUSH2 0x513 SWAP1 PUSH2 0xC38 JUMP JUMPDEST DUP1 ISZERO PUSH2 0x560 JUMPI DUP1 PUSH1 0x1F LT PUSH2 0x535 JUMPI PUSH2 0x100 DUP1 DUP4 SLOAD DIV MUL DUP4 MSTORE SWAP2 PUSH1 0x20 ADD SWAP2 PUSH2 0x560 JUMP JUMPDEST DUP3 ADD SWAP2 SWAP1 PUSH1 0x0 MSTORE PUSH1 0x20 PUSH1 0x0 KECCAK256 SWAP1 JUMPDEST DUP2 SLOAD DUP2 MSTORE SWAP1 PUSH1 0x1 ADD SWAP1 PUSH1 0x20 ADD DUP1 DUP4 GT PUSH2 0x543 JUMPI DUP3 SWAP1 SUB PUSH1 0x1F AND DUP3 ADD SWAP2 JUMPDEST POP POP POP POP POP DUP2 JUMP JUMPDEST PUSH1 0x5 SLOAD DUP2 JUMP JUMPDEST PUSH1 0x2 PUSH1 0x0 SWAP1 SLOAD SWAP1 PUSH2 0x100 EXP SWAP1 DIV PUSH20 0xFFFFFFFFFFFFFFFFFFFFFFFFFFFFFFFFFFFFFFFF AND DUP2 JUMP JUMPDEST PUSH1 0x0 DUP1 PUSH1 0x0 DUP1 SLOAD SWAP1 PUSH2 0x100 EXP SWAP1 DIV PUSH20 0xFFFFFFFFFFFFFFFFFFFFFFFFFFFFFFFFFFFFFFFF AND PUSH20 0xFFFFFFFFFFFFFFFFFFFFFFFFFFFFFFFFFFFFFFFF AND PUSH4 0xFEAF968C PUSH1 0x40 MLOAD DUP2 PUSH4 0xFFFFFFFF AND PUSH1 0xE0 SHL DUP2 MSTORE PUSH1 0x4 ADD PUSH1 0xA0 PUSH1 0x40 MLOAD DUP1 DUP4 SUB DUP2 DUP7 GAS STATICCALL ISZERO DUP1 ISZERO PUSH2 0x602 JUMPI RETURNDATASIZE PUSH1 0x0 DUP1 RETURNDATACOPY RETURNDATASIZE PUSH1 0x0 REVERT JUMPDEST POP POP POP POP PUSH1 0x40 MLOAD RETURNDATASIZE PUSH1 0x1F NOT PUSH1 0x1F DUP3 ADD AND DUP3 ADD DUP1 PUSH1 0x40 MSTORE POP DUP2 ADD SWAP1 PUSH2 0x626 SWAP2 SWAP1 PUSH2 0xCEC JUMP JUMPDEST POP POP POP SWAP2 POP POP DUP1 SWAP2 POP POP SWAP1 JUMP JUMPDEST PUSH1 0x8 PUSH1 0x0 SWAP1 SLOAD SWAP1 PUSH2 0x100 EXP SWAP1 DIV PUSH20 0xFFFFFFFFFFFFFFFFFFFFFFFFFFFFFFFFFFFFFFFF AND DUP2 JUMP JUMPDEST PUSH1 0x3 DUP1 SLOAD PUSH2 0x666 SWAP1 PUSH2 0xC38 JUMP JUMPDEST DUP1 PUSH1 0x1F ADD PUSH1 0x20 DUP1 SWAP2 DIV MUL PUSH1 0x20 ADD PUSH1 0x40 MLOAD SWAP1 DUP2 ADD PUSH1 0x40 MSTORE DUP1 SWAP3 SWAP2 SWAP1 DUP2 DUP2 MSTORE PUSH1 0x20 ADD DUP3 DUP1 SLOAD PUSH2 0x692 SWAP1 PUSH2 0xC38 JUMP JUMPDEST DUP1 ISZERO PUSH2 0x6DF JUMPI DUP1 PUSH1 0x1F LT PUSH2 0x6B4 JUMPI PUSH2 0x100 DUP1 DUP4 SLOAD DIV MUL DUP4 MSTORE SWAP2 PUSH1 0x20 ADD SWAP2 PUSH2 0x6DF JUMP JUMPDEST DUP3 ADD SWAP2 SWAP1 PUSH1 0x0 MSTORE PUSH1 0x20 PUSH1 0x0 KECCAK256 SWAP1 JUMPDEST DUP2 SLOAD DUP2 MSTORE SWAP1 PUSH1 0x1 ADD SWAP1 PUSH1 0x20 ADD DUP1 DUP4 GT PUSH2 0x6C2 JUMPI DUP3 SWAP1 SUB PUSH1 0x1F AND DUP3 ADD SWAP2 JUMPDEST POP POP POP POP POP DUP2 JUMP JUMPDEST PUSH1 0x4 SLOAD DUP2 JUMP JUMPDEST PUSH1 0x6 DUP1 SLOAD PUSH2 0x6FA SWAP1 PUSH2 0xC38 JUMP JUMPDEST DUP1 PUSH1 0x1F ADD PUSH1 0x20 DUP1 SWAP2 DIV MUL PUSH1 0x20 ADD PUSH1 0x40 MLOAD SWAP1 DUP2 ADD PUSH1 0x40 MSTORE DUP1 SWAP3 SWAP2 SWAP1 DUP2 DUP2 MSTORE PUSH1 0x20 ADD DUP3 DUP1 SLOAD PUSH2 0x726 SWAP1 PUSH2 0xC38 JUMP JUMPDEST DUP1 ISZERO PUSH2 0x773 JUMPI DUP1 PUSH1 0x1F LT PUSH2 0x748 JUMPI PUSH2 0x100 DUP1 DUP4 SLOAD DIV MUL DUP4 MSTORE SWAP2 PUSH1 0x20 ADD SWAP2 PUSH2 0x773 JUMP JUMPDEST DUP3 ADD SWAP2 SWAP1 PUSH1 0x0 MSTORE PUSH1 0x20 PUSH1 0x0 KECCAK256 SWAP1 JUMPDEST DUP2 SLOAD DUP2 MSTORE SWAP1 PUSH1 0x1 ADD SWAP1 PUSH1 0x20 ADD DUP1 DUP4 GT PUSH2 0x756 JUMPI DUP3 SWAP1 SUB PUSH1 0x1F AND DUP3 ADD SWAP2 JUMPDEST POP POP POP POP POP DUP2 JUMP JUMPDEST PUSH1 0x7 DUP1 SLOAD PUSH2 0x788 SWAP1 PUSH2 0xC38 JUMP JUMPDEST DUP1 PUSH1 0x1F ADD PUSH1 0x20 DUP1 SWAP2 DIV MUL PUSH1 0x20 ADD PUSH1 0x40 MLOAD SWAP1 DUP2 ADD PUSH1 0x40 MSTORE DUP1 SWAP3 SWAP2 SWAP1 DUP2 DUP2 MSTORE PUSH1 0x20 ADD DUP3 DUP1 SLOAD PUSH2 0x7B4 SWAP1 PUSH2 0xC38 JUMP JUMPDEST DUP1 ISZERO PUSH2 0x801 JUMPI DUP1 PUSH1 0x1F LT PUSH2 0x7D6 JUMPI PUSH2 0x100 DUP1 DUP4 SLOAD DIV MUL DUP4 MSTORE SWAP2 PUSH1 0x20 ADD SWAP2 PUSH2 0x801 JUMP JUMPDEST DUP3 ADD SWAP2 SWAP1 PUSH1 0x0 MSTORE PUSH1 0x20 PUSH1 0x0 KECCAK256 SWAP1 JUMPDEST DUP2 SLOAD DUP2 MSTORE SWAP1 PUSH1 0x1 ADD SWAP1 PUSH1 0x20 ADD DUP1 DUP4 GT PUSH2 0x7E4 JUMPI DUP3 SWAP1 SUB PUSH1 0x1F AND DUP3 ADD SWAP2 JUMPDEST POP POP POP POP POP DUP2 JUMP JUMPDEST PUSH1 0x0 DUP3 DUP3 MSTORE PUSH1 0x20 DUP3 ADD SWAP1 POP SWAP3 SWAP2 POP POP JUMP JUMPDEST PUSH32 0x5468697320636F6D70616E7920646F6573206E6F74206861766520656E6F7567 PUSH1 0x0 DUP3 ADD MSTORE PUSH32 0x6820746F6B656E7320746F206361727279206F757420746869732073616C6520 PUSH1 0x20 DUP3 ADD MSTORE PUSH32 0x6F7065726174696F6E2E00000000000000000000000000000000000000000000 PUSH1 0x40 DUP3 ADD MSTORE POP JUMP JUMPDEST PUSH1 0x0 PUSH2 0x89C PUSH1 0x4A DUP4 PUSH2 0x809 JUMP JUMPDEST SWAP2 POP PUSH2 0x8A7 DUP3 PUSH2 0x81A JUMP JUMPDEST PUSH1 0x60 DUP3 ADD SWAP1 POP SWAP2 SWAP1 POP JUMP JUMPDEST PUSH1 0x0 PUSH1 0x20 DUP3 ADD SWAP1 POP DUP2 DUP2 SUB PUSH1 0x0 DUP4 ADD MSTORE PUSH2 0x8CB DUP2 PUSH2 0x88F JUMP JUMPDEST SWAP1 POP SWAP2 SWAP1 POP JUMP JUMPDEST PUSH1 0x0 PUSH20 0xFFFFFFFFFFFFFFFFFFFFFFFFFFFFFFFFFFFFFFFF DUP3 AND SWAP1 POP SWAP2 SWAP1 POP JUMP JUMPDEST PUSH1 0x0 PUSH2 0x8FD DUP3 PUSH2 0x8D2 JUMP JUMPDEST SWAP1 POP SWAP2 SWAP1 POP JUMP JUMPDEST PUSH2 0x90D DUP2 PUSH2 0x8F2 JUMP JUMPDEST DUP3 MSTORE POP POP JUMP JUMPDEST PUSH1 0x0 DUP2 SWAP1 POP SWAP2 SWAP1 POP JUMP JUMPDEST PUSH2 0x926 DUP2 PUSH2 0x913 JUMP JUMPDEST DUP3 MSTORE POP POP JUMP JUMPDEST PUSH1 0x0 PUSH1 0x40 DUP3 ADD SWAP1 POP PUSH2 0x941 PUSH1 0x0 DUP4 ADD DUP6 PUSH2 0x904 JUMP JUMPDEST PUSH2 0x94E PUSH1 0x20 DUP4 ADD DUP5 PUSH2 0x91D JUMP JUMPDEST SWAP4 SWAP3 POP POP POP JUMP JUMPDEST PUSH1 0x0 DUP2 SWAP1 POP SWAP2 SWAP1 POP JUMP JUMPDEST PUSH1 0x0 PUSH2 0x97A PUSH2 0x975 PUSH2 0x970 DUP5 PUSH2 0x8D2 JUMP JUMPDEST PUSH2 0x955 JUMP JUMPDEST PUSH2 0x8D2 JUMP JUMPDEST SWAP1 POP SWAP2 SWAP1 POP JUMP JUMPDEST PUSH1 0x0 PUSH2 0x98C DUP3 PUSH2 0x95F JUMP JUMPDEST SWAP1 POP SWAP2 SWAP1 POP JUMP JUMPDEST PUSH1 0x0 PUSH2 0x99E DUP3 PUSH2 0x981 JUMP JUMPDEST SWAP1 POP SWAP2 SWAP1 POP JUMP JUMPDEST PUSH2 0x9AE DUP2 PUSH2 0x993 JUMP JUMPDEST DUP3 MSTORE POP POP JUMP JUMPDEST PUSH1 0x0 PUSH1 0x20 DUP3 ADD SWAP1 POP PUSH2 0x9C9 PUSH1 0x0 DUP4 ADD DUP5 PUSH2 0x9A5 JUMP JUMPDEST SWAP3 SWAP2 POP POP JUMP JUMPDEST PUSH1 0x0 DUP1 REVERT JUMPDEST PUSH2 0x9DD DUP2 PUSH2 0x913 JUMP JUMPDEST DUP2 EQ PUSH2 0x9E8 JUMPI PUSH1 0x0 DUP1 REVERT JUMPDEST POP JUMP JUMPDEST PUSH1 0x0 DUP2 CALLDATALOAD SWAP1 POP PUSH2 0x9FA DUP2 PUSH2 0x9D4 JUMP JUMPDEST SWAP3 SWAP2 POP POP JUMP JUMPDEST PUSH1 0x0 PUSH1 0x20 DUP3 DUP5 SUB SLT ISZERO PUSH2 0xA16 JUMPI PUSH2 0xA15 PUSH2 0x9CF JUMP JUMPDEST JUMPDEST PUSH1 0x0 PUSH2 0xA24 DUP5 DUP3 DUP6 ADD PUSH2 0x9EB JUMP JUMPDEST SWAP2 POP POP SWAP3 SWAP2 POP POP JUMP JUMPDEST PUSH1 0x0 PUSH1 0x20 DUP3 ADD SWAP1 POP PUSH2 0xA42 PUSH1 0x0 DUP4 ADD DUP5 PUSH2 0x91D JUMP JUMPDEST SWAP3 SWAP2 POP POP JUMP JUMPDEST PUSH1 0x0 DUP2 MLOAD SWAP1 POP SWAP2 SWAP1 POP JUMP JUMPDEST PUSH1 0x0 JUMPDEST DUP4 DUP2 LT ISZERO PUSH2 0xA71 JUMPI DUP1 DUP3 ADD MLOAD DUP2 DUP5 ADD MSTORE PUSH1 0x20 DUP2 ADD SWAP1 POP PUSH2 0xA56 JUMP JUMPDEST PUSH1 0x0 DUP5 DUP5 ADD MSTORE POP POP POP POP JUMP JUMPDEST PUSH1 0x0 PUSH1 0x1F NOT PUSH1 0x1F DUP4 ADD AND SWAP1 POP SWAP2 SWAP1 POP JUMP JUMPDEST PUSH1 0x0 PUSH2 0xA99 DUP3 PUSH2 0xA48 JUMP JUMPDEST PUSH2 0xAA3 DUP2 DUP6 PUSH2 0x809 JUMP JUMPDEST SWAP4 POP PUSH2 0xAB3 DUP2 DUP6 PUSH1 0x20 DUP7 ADD PUSH2 0xA53 JUMP JUMPDEST PUSH2 0xABC DUP2 PUSH2 0xA7D JUMP JUMPDEST DUP5 ADD SWAP2 POP POP SWAP3 SWAP2 POP POP JUMP JUMPDEST PUSH1 0x0 PUSH1 0x20 DUP3 ADD SWAP1 POP DUP2 DUP2 SUB PUSH1 0x0 DUP4 ADD MSTORE PUSH2 0xAE1 DUP2 DUP5 PUSH2 0xA8E JUMP JUMPDEST SWAP1 POP SWAP3 SWAP2 POP POP JUMP JUMPDEST PUSH1 0x0 PUSH1 0x20 DUP3 ADD SWAP1 POP PUSH2 0xAFE PUSH1 0x0 DUP4 ADD DUP5 PUSH2 0x904 JUMP JUMPDEST SWAP3 SWAP2 POP POP JUMP JUMPDEST PUSH1 0x0 DUP2 SWAP1 POP SWAP2 SWAP1 POP JUMP JUMPDEST PUSH2 0xB17 DUP2 PUSH2 0xB04 JUMP JUMPDEST DUP3 MSTORE POP POP JUMP JUMPDEST PUSH1 0x0 PUSH1 0x20 DUP3 ADD SWAP1 POP PUSH2 0xB32 PUSH1 0x0 DUP4 ADD DUP5 PUSH2 0xB0E JUMP JUMPDEST SWAP3 SWAP2 POP POP JUMP JUMPDEST PUSH32 0x4E487B7100000000000000000000000000000000000000000000000000000000 PUSH1 0x0 MSTORE PUSH1 0x11 PUSH1 0x4 MSTORE PUSH1 0x24 PUSH1 0x0 REVERT JUMPDEST PUSH1 0x0 PUSH2 0xB72 DUP3 PUSH2 0x913 JUMP JUMPDEST SWAP2 POP PUSH2 0xB7D DUP4 PUSH2 0x913 JUMP JUMPDEST SWAP3 POP DUP3 DUP3 MUL PUSH2 0xB8B DUP2 PUSH2 0x913 JUMP JUMPDEST SWAP2 POP DUP3 DUP3 DIV DUP5 EQ DUP4 ISZERO OR PUSH2 0xBA2 JUMPI PUSH2 0xBA1 PUSH2 0xB38 JUMP JUMPDEST JUMPDEST POP SWAP3 SWAP2 POP POP JUMP JUMPDEST PUSH32 0x4E487B7100000000000000000000000000000000000000000000000000000000 PUSH1 0x0 MSTORE PUSH1 0x12 PUSH1 0x4 MSTORE PUSH1 0x24 PUSH1 0x0 REVERT JUMPDEST PUSH1 0x0 PUSH2 0xBE3 DUP3 PUSH2 0x913 JUMP JUMPDEST SWAP2 POP PUSH2 0xBEE DUP4 PUSH2 0x913 JUMP JUMPDEST SWAP3 POP DUP3 PUSH2 0xBFE JUMPI PUSH2 0xBFD PUSH2 0xBA9 JUMP JUMPDEST JUMPDEST DUP3 DUP3 DIV SWAP1 POP SWAP3 SWAP2 POP POP JUMP JUMPDEST PUSH32 0x4E487B7100000000000000000000000000000000000000000000000000000000 PUSH1 0x0 MSTORE PUSH1 0x22 PUSH1 0x4 MSTORE PUSH1 0x24 PUSH1 0x0 REVERT JUMPDEST PUSH1 0x0 PUSH1 0x2 DUP3 DIV SWAP1 POP PUSH1 0x1 DUP3 AND DUP1 PUSH2 0xC50 JUMPI PUSH1 0x7F DUP3 AND SWAP2 POP JUMPDEST PUSH1 0x20 DUP3 LT DUP2 SUB PUSH2 0xC63 JUMPI PUSH2 0xC62 PUSH2 0xC09 JUMP JUMPDEST JUMPDEST POP SWAP2 SWAP1 POP JUMP JUMPDEST PUSH1 0x0 PUSH10 0xFFFFFFFFFFFFFFFFFFFF DUP3 AND SWAP1 POP SWAP2 SWAP1 POP JUMP JUMPDEST PUSH2 0xC88 DUP2 PUSH2 0xC69 JUMP JUMPDEST DUP2 EQ PUSH2 0xC93 JUMPI PUSH1 0x0 DUP1 REVERT JUMPDEST POP JUMP JUMPDEST PUSH1 0x0 DUP2 MLOAD SWAP1 POP PUSH2 0xCA5 DUP2 PUSH2 0xC7F JUMP JUMPDEST SWAP3 SWAP2 POP POP JUMP JUMPDEST PUSH2 0xCB4 DUP2 PUSH2 0xB04 JUMP JUMPDEST DUP2 EQ PUSH2 0xCBF JUMPI PUSH1 0x0 DUP1 REVERT JUMPDEST POP JUMP JUMPDEST PUSH1 0x0 DUP2 MLOAD SWAP1 POP PUSH2 0xCD1 DUP2 PUSH2 0xCAB JUMP JUMPDEST SWAP3 SWAP2 POP POP JUMP JUMPDEST PUSH1 0x0 DUP2 MLOAD SWAP1 POP PUSH2 0xCE6 DUP2 PUSH2 0x9D4 JUMP JUMPDEST SWAP3 SWAP2 POP POP JUMP JUMPDEST PUSH1 0x0 DUP1 PUSH1 0x0 DUP1 PUSH1 0x0 PUSH1 0xA0 DUP7 DUP9 SUB SLT ISZERO PUSH2 0xD08 JUMPI PUSH2 0xD07 PUSH2 0x9CF JUMP JUMPDEST JUMPDEST PUSH1 0x0 PUSH2 0xD16 DUP9 DUP3 DUP10 ADD PUSH2 0xC96 JUMP JUMPDEST SWAP6 POP POP PUSH1 0x20 PUSH2 0xD27 DUP9 DUP3 DUP10 ADD PUSH2 0xCC2 JUMP JUMPDEST SWAP5 POP POP PUSH1 0x40 PUSH2 0xD38 DUP9 DUP3 DUP10 ADD PUSH2 0xCD7 JUMP JUMPDEST SWAP4 POP POP PUSH1 0x60 PUSH2 0xD49 DUP9 DUP3 DUP10 ADD PUSH2 0xCD7 JUMP JUMPDEST SWAP3 POP POP PUSH1 0x80 PUSH2 0xD5A DUP9 DUP3 DUP10 ADD PUSH2 0xC96 JUMP JUMPDEST SWAP2 POP POP SWAP3 SWAP6 POP SWAP3 SWAP6 SWAP1 SWAP4 POP JUMP INVALID LOG2 PUSH5 0x6970667358 0x22 SLT KECCAK256 0xCB BLOCKHASH ADDMOD 0xA5 COINBASE 0xAD PUSH8 0x77329DFB641A550 MLOAD 0xBA XOR 0xCA 0xFC PUSH16 0x6C16DA46FAA87A2E8C122F64736F6C63 NUMBER STOP ADDMOD SGT STOP CALLER "
		},
		"gasEstimates": {
			"creation": {
				"codeDepositCost": "697000",
				"executionCost": "infinite",
				"totalCost": "infinite"
			},
			"external": {
				"allowance()": "2495",
				"companyName()": "infinite",
				"companyOwner()": "2536",
				"companyType()": "infinite",
				"country()": "infinite",
				"getLatestPrice()": "infinite",
				"logoURI()": "infinite",
				"minter()": "infinite",
				"owner()": "2625",
				"tokenAmount(uint256)": "infinite",
				"tokenPrice()": "2518",
				"withdraw()": "infinite"
			}
		},
		"methodIdentifiers": {
			"allowance()": "de242ff4",
			"companyName()": "f5ec2eed",
			"companyOwner()": "d27fb607",
			"companyType()": "fdf48f2e",
			"country()": "d8b0b499",
			"getLatestPrice()": "8e15f473",
			"logoURI()": "6bb38b28",
			"minter()": "07546172",
			"owner()": "8da5cb5b",
			"tokenAmount(uint256)": "45ab331e",
			"tokenPrice()": "7ff9b596",
			"withdraw()": "3ccfd60b"
		}
	},
	"abi": [
		{
			"inputs": [
				{
					"internalType": "address",
					"name": "_AggregatorV3Interface",
					"type": "address"
				},
				{
					"internalType": "address",
					"name": "tokenAddress",
					"type": "address"
				},
				{
					"internalType": "string",
					"name": "_companyName",
					"type": "string"
				},
				{
					"internalType": "string",
					"name": "_companyType",
					"type": "string"
				},
				{
					"internalType": "address",
					"name": "_companyOwner",
					"type": "address"
				},
				{
					"internalType": "string",
					"name": "_country",
					"type": "string"
				},
				{
					"internalType": "uint256",
					"name": "_tokenPrice",
					"type": "uint256"
				},
				{
					"internalType": "uint256",
					"name": "_allowance",
					"type": "uint256"
				},
				{
					"internalType": "string",
					"name": "_logoURI",
					"type": "string"
				}
			],
			"stateMutability": "nonpayable",
			"type": "constructor"
		},
		{
			"inputs": [],
			"name": "allowance",
			"outputs": [
				{
					"internalType": "uint256",
					"name": "",
					"type": "uint256"
				}
			],
			"stateMutability": "view",
			"type": "function"
		},
		{
			"inputs": [],
			"name": "companyName",
			"outputs": [
				{
					"internalType": "string",
					"name": "",
					"type": "string"
				}
			],
			"stateMutability": "view",
			"type": "function"
		},
		{
			"inputs": [],
			"name": "companyOwner",
			"outputs": [
				{
					"internalType": "address",
					"name": "",
					"type": "address"
				}
			],
			"stateMutability": "view",
			"type": "function"
		},
		{
			"inputs": [],
			"name": "companyType",
			"outputs": [
				{
					"internalType": "string",
					"name": "",
					"type": "string"
				}
			],
			"stateMutability": "view",
			"type": "function"
		},
		{
			"inputs": [],
			"name": "country",
			"outputs": [
				{
					"internalType": "string",
					"name": "",
					"type": "string"
				}
			],
			"stateMutability": "view",
			"type": "function"
		},
		{
			"inputs": [],
			"name": "getLatestPrice",
			"outputs": [
				{
					"internalType": "int256",
					"name": "",
					"type": "int256"
				}
			],
			"stateMutability": "view",
			"type": "function"
		},
		{
			"inputs": [],
			"name": "logoURI",
			"outputs": [
				{
					"internalType": "string",
					"name": "",
					"type": "string"
				}
			],
			"stateMutability": "view",
			"type": "function"
		},
		{
			"inputs": [],
			"name": "minter",
			"outputs": [
				{
					"internalType": "contract TokenInterface",
					"name": "",
					"type": "address"
				}
			],
			"stateMutability": "view",
			"type": "function"
		},
		{
			"inputs": [],
			"name": "owner",
			"outputs": [
				{
					"internalType": "address",
					"name": "",
					"type": "address"
				}
			],
			"stateMutability": "view",
			"type": "function"
		},
		{
			"inputs": [
				{
					"internalType": "uint256",
					"name": "amountMatic",
					"type": "uint256"
				}
			],
			"name": "tokenAmount",
			"outputs": [
				{
					"internalType": "uint256",
					"name": "",
					"type": "uint256"
				}
			],
			"stateMutability": "view",
			"type": "function"
		},
		{
			"inputs": [],
			"name": "tokenPrice",
			"outputs": [
				{
					"internalType": "uint256",
					"name": "",
					"type": "uint256"
				}
			],
			"stateMutability": "view",
			"type": "function"
		},
		{
			"inputs": [],
			"name": "withdraw",
			"outputs": [],
			"stateMutability": "nonpayable",
			"type": "function"
		},
		{
			"stateMutability": "payable",
			"type": "receive"
		}
	]
}