{
  "contractName": "OffSetCarbonToken",
  "abi": [
    {
      "inputs": [],
      "stateMutability": "nonpayable",
      "type": "constructor"
    },
    {
      "anonymous": false,
      "inputs": [
        {
          "indexed": true,
          "internalType": "address",
          "name": "owner",
          "type": "address"
        },
        {
          "indexed": true,
          "internalType": "address",
          "name": "spender",
          "type": "address"
        },
        {
          "indexed": false,
          "internalType": "uint256",
          "name": "value",
          "type": "uint256"
        }
      ],
      "name": "Approval",
      "type": "event"
    },
    {
      "anonymous": false,
      "inputs": [
        {
          "indexed": true,
          "internalType": "bytes32",
          "name": "role",
          "type": "bytes32"
        },
        {
          "indexed": true,
          "internalType": "bytes32",
          "name": "previousAdminRole",
          "type": "bytes32"
        },
        {
          "indexed": true,
          "internalType": "bytes32",
          "name": "newAdminRole",
          "type": "bytes32"
        }
      ],
      "name": "RoleAdminChanged",
      "type": "event"
    },
    {
      "anonymous": false,
      "inputs": [
        {
          "indexed": true,
          "internalType": "bytes32",
          "name": "role",
          "type": "bytes32"
        },
        {
          "indexed": true,
          "internalType": "address",
          "name": "account",
          "type": "address"
        },
        {
          "indexed": true,
          "internalType": "address",
          "name": "sender",
          "type": "address"
        }
      ],
      "name": "RoleGranted",
      "type": "event"
    },
    {
      "anonymous": false,
      "inputs": [
        {
          "indexed": true,
          "internalType": "bytes32",
          "name": "role",
          "type": "bytes32"
        },
        {
          "indexed": true,
          "internalType": "address",
          "name": "account",
          "type": "address"
        },
        {
          "indexed": true,
          "internalType": "address",
          "name": "sender",
          "type": "address"
        }
      ],
      "name": "RoleRevoked",
      "type": "event"
    },
    {
      "anonymous": false,
      "inputs": [
        {
          "indexed": true,
          "internalType": "address",
          "name": "from",
          "type": "address"
        },
        {
          "indexed": true,
          "internalType": "address",
          "name": "to",
          "type": "address"
        },
        {
          "indexed": false,
          "internalType": "uint256",
          "name": "value",
          "type": "uint256"
        }
      ],
      "name": "Transfer",
      "type": "event"
    },
    {
      "inputs": [],
      "name": "DEFAULT_ADMIN_ROLE",
      "outputs": [
        {
          "internalType": "bytes32",
          "name": "",
          "type": "bytes32"
        }
      ],
      "stateMutability": "view",
      "type": "function"
    },
    {
      "inputs": [],
      "name": "MINTER_ROLE",
      "outputs": [
        {
          "internalType": "bytes32",
          "name": "",
          "type": "bytes32"
        }
      ],
      "stateMutability": "view",
      "type": "function"
    },
    {
      "inputs": [
        {
          "internalType": "address",
          "name": "owner",
          "type": "address"
        },
        {
          "internalType": "address",
          "name": "spender",
          "type": "address"
        }
      ],
      "name": "allowance",
      "outputs": [
        {
          "internalType": "uint256",
          "name": "",
          "type": "uint256"
        }
      ],
      "stateMutability": "view",
      "type": "function"
    },
    {
      "inputs": [
        {
          "internalType": "address",
          "name": "spender",
          "type": "address"
        },
        {
          "internalType": "uint256",
          "name": "amount",
          "type": "uint256"
        }
      ],
      "name": "approve",
      "outputs": [
        {
          "internalType": "bool",
          "name": "",
          "type": "bool"
        }
      ],
      "stateMutability": "nonpayable",
      "type": "function"
    },
    {
      "inputs": [
        {
          "internalType": "address",
          "name": "account",
          "type": "address"
        }
      ],
      "name": "balanceOf",
      "outputs": [
        {
          "internalType": "uint256",
          "name": "",
          "type": "uint256"
        }
      ],
      "stateMutability": "view",
      "type": "function"
    },
    {
      "inputs": [
        {
          "internalType": "address",
          "name": "",
          "type": "address"
        }
      ],
      "name": "certifiersContracts",
      "outputs": [
        {
          "internalType": "address",
          "name": "",
          "type": "address"
        }
      ],
      "stateMutability": "view",
      "type": "function"
    },
    {
      "inputs": [
        {
          "internalType": "address",
          "name": "spender",
          "type": "address"
        },
        {
          "internalType": "uint256",
          "name": "subtractedValue",
          "type": "uint256"
        }
      ],
      "name": "decreaseAllowance",
      "outputs": [
        {
          "internalType": "bool",
          "name": "",
          "type": "bool"
        }
      ],
      "stateMutability": "nonpayable",
      "type": "function"
    },
    {
      "inputs": [
        {
          "internalType": "bytes32",
          "name": "role",
          "type": "bytes32"
        }
      ],
      "name": "getRoleAdmin",
      "outputs": [
        {
          "internalType": "bytes32",
          "name": "",
          "type": "bytes32"
        }
      ],
      "stateMutability": "view",
      "type": "function"
    },
    {
      "inputs": [
        {
          "internalType": "bytes32",
          "name": "role",
          "type": "bytes32"
        },
        {
          "internalType": "address",
          "name": "account",
          "type": "address"
        }
      ],
      "name": "grantRole",
      "outputs": [],
      "stateMutability": "nonpayable",
      "type": "function"
    },
    {
      "inputs": [
        {
          "internalType": "bytes32",
          "name": "role",
          "type": "bytes32"
        },
        {
          "internalType": "address",
          "name": "account",
          "type": "address"
        }
      ],
      "name": "hasRole",
      "outputs": [
        {
          "internalType": "bool",
          "name": "",
          "type": "bool"
        }
      ],
      "stateMutability": "view",
      "type": "function"
    },
    {
      "inputs": [
        {
          "internalType": "address",
          "name": "spender",
          "type": "address"
        },
        {
          "internalType": "uint256",
          "name": "addedValue",
          "type": "uint256"
        }
      ],
      "name": "increaseAllowance",
      "outputs": [
        {
          "internalType": "bool",
          "name": "",
          "type": "bool"
        }
      ],
      "stateMutability": "nonpayable",
      "type": "function"
    },
    {
      "inputs": [],
      "name": "name",
      "outputs": [
        {
          "internalType": "string",
          "name": "",
          "type": "string"
        }
      ],
      "stateMutability": "view",
      "type": "function"
    },
    {
      "inputs": [
        {
          "internalType": "bytes32",
          "name": "role",
          "type": "bytes32"
        },
        {
          "internalType": "address",
          "name": "account",
          "type": "address"
        }
      ],
      "name": "renounceRole",
      "outputs": [],
      "stateMutability": "nonpayable",
      "type": "function"
    },
    {
      "inputs": [
        {
          "internalType": "bytes32",
          "name": "role",
          "type": "bytes32"
        },
        {
          "internalType": "address",
          "name": "account",
          "type": "address"
        }
      ],
      "name": "revokeRole",
      "outputs": [],
      "stateMutability": "nonpayable",
      "type": "function"
    },
    {
      "inputs": [
        {
          "internalType": "bytes4",
          "name": "interfaceId",
          "type": "bytes4"
        }
      ],
      "name": "supportsInterface",
      "outputs": [
        {
          "internalType": "bool",
          "name": "",
          "type": "bool"
        }
      ],
      "stateMutability": "view",
      "type": "function"
    },
    {
      "inputs": [],
      "name": "symbol",
      "outputs": [
        {
          "internalType": "string",
          "name": "",
          "type": "string"
        }
      ],
      "stateMutability": "view",
      "type": "function"
    },
    {
      "inputs": [],
      "name": "totalSupply",
      "outputs": [
        {
          "internalType": "uint256",
          "name": "",
          "type": "uint256"
        }
      ],
      "stateMutability": "view",
      "type": "function"
    },
    {
      "inputs": [
        {
          "internalType": "address",
          "name": "to",
          "type": "address"
        },
        {
          "internalType": "uint256",
          "name": "amount",
          "type": "uint256"
        }
      ],
      "name": "transfer",
      "outputs": [
        {
          "internalType": "bool",
          "name": "",
          "type": "bool"
        }
      ],
      "stateMutability": "nonpayable",
      "type": "function"
    },
    {
      "inputs": [
        {
          "internalType": "address",
          "name": "from",
          "type": "address"
        },
        {
          "internalType": "address",
          "name": "to",
          "type": "address"
        },
        {
          "internalType": "uint256",
          "name": "amount",
          "type": "uint256"
        }
      ],
      "name": "transferFrom",
      "outputs": [
        {
          "internalType": "bool",
          "name": "",
          "type": "bool"
        }
      ],
      "stateMutability": "nonpayable",
      "type": "function"
    },
    {
      "inputs": [
        {
          "internalType": "address",
          "name": "",
          "type": "address"
        },
        {
          "internalType": "string",
          "name": "",
          "type": "string"
        }
      ],
      "name": "userTotalOffSetDate",
      "outputs": [
        {
          "internalType": "uint256",
          "name": "",
          "type": "uint256"
        }
      ],
      "stateMutability": "view",
      "type": "function"
    },
    {
      "inputs": [
        {
          "internalType": "string",
          "name": "date",
          "type": "string"
        }
      ],
      "name": "inspectDate",
      "outputs": [
        {
          "internalType": "bool",
          "name": "",
          "type": "bool"
        }
      ],
      "stateMutability": "view",
      "type": "function"
    },
    {
      "inputs": [],
      "name": "historyUsersRetires",
      "outputs": [
        {
          "internalType": "string[]",
          "name": "",
          "type": "string[]"
        },
        {
          "internalType": "string",
          "name": "",
          "type": "string"
        }
      ],
      "stateMutability": "view",
      "type": "function"
    },
    {
      "inputs": [
        {
          "internalType": "address",
          "name": "_certifierOwners",
          "type": "address"
        },
        {
          "internalType": "address",
          "name": "_certifierContract",
          "type": "address"
        }
      ],
      "name": "newCertifier",
      "outputs": [],
      "stateMutability": "nonpayable",
      "type": "function"
    },
    {
      "inputs": [
        {
          "internalType": "address",
          "name": "_newController",
          "type": "address"
        }
      ],
      "name": "updateController",
      "outputs": [],
      "stateMutability": "nonpayable",
      "type": "function"
    },
    {
      "inputs": [
        {
          "internalType": "address",
          "name": "to",
          "type": "address"
        },
        {
          "internalType": "uint256",
          "name": "amount",
          "type": "uint256"
        }
      ],
      "name": "mint",
      "outputs": [],
      "stateMutability": "nonpayable",
      "type": "function"
    },
    {
      "inputs": [
        {
          "internalType": "uint256",
          "name": "amount",
          "type": "uint256"
        },
        {
          "internalType": "string",
          "name": "date",
          "type": "string"
        }
      ],
      "name": "retire",
      "outputs": [],
      "stateMutability": "nonpayable",
      "type": "function"
    },
    {
      "inputs": [],
      "name": "decimals",
      "outputs": [
        {
          "internalType": "uint8",
          "name": "",
          "type": "uint8"
        }
      ],
      "stateMutability": "pure",
      "type": "function"
    }
  ],
  "bytecode": "0x60806040523480156200001157600080fd5b506040518060400160405280601181526020017f4f6666536574436172626f6e546f6b656e0000000000000000000000000000008152506040518060400160405280600481526020017f4f5343540000000000000000000000000000000000000000000000000000000081525081600390816200008f91906200034a565b508060049081620000a191906200034a565b5050503373ffffffffffffffffffffffffffffffffffffffff16600660009054906101000a9050505062000431565b600081519050919050565b7f4e487b7100000000000000000000000000000000000000000000000000000000600052604160045260246000fd5b7f4e487b7100000000000000000000000000000000000000000000000000000000600052602260045260246000fd5b600060028204905060018216806200015257607f821691505b6020821081036200016857620001676200010a565b5b50919050565b60008190508160005260206000209050919050565b60006020601f8301049050919050565b600082821b905092915050565b600060088302620001d27fffffffffffffffffffffffffffffffffffffffffffffffffffffffffffffffff8262000193565b620001de868362000193565b95508019841693508086168417925050509392505050565b6000819050919050565b6000819050919050565b60006200022b620002256200021f84620001f6565b62000200565b620001f6565b9050919050565b6000819050919050565b62000247836200020a565b6200025f620002568262000232565b848454620001a0565b825550505050565b600090565b6200027662000267565b620002838184846200023c565b505050565b5b81811015620002ab576200029f6000826200026c565b60018101905062000289565b5050565b601f821115620002fa57620002c4816200016e565b620002cf8462000183565b81016020851015620002df578190505b620002f7620002ee8562000183565b83018262000288565b50505b505050565b600082821c905092915050565b60006200031f60001984600802620002ff565b1980831691505092915050565b60006200033a83836200030c565b9150826002028217905092915050565b6200035582620000d0565b67ffffffffffffffff811115620003715762000370620000db565b5b6200037d825462000139565b6200038a828285620002af565b600060209050601f831160018114620003c25760008415620003ad578287015190505b620003b985826200032c565b86555062000429565b601f198416620003d2866200016e565b60005b82811015620003fc57848901518255600182019150602085019450602081019050620003d5565b868310156200041c578489015162000418601f8916826200030c565b8355505b6001600288020188555050505b505050505050565b6133e980620004416000396000f3fe608060405234801561001057600080fd5b50600436106101a95760003560e01c806362ffaa45116100f9578063a217fddf11610097578063a9059cbb11610071578063a9059cbb1461051b578063d53913931461054b578063d547741f14610569578063dd62ed3e14610585576101a9565b8063a217fddf146104ae578063a343561e146104cc578063a457c2d7146104eb576101a9565b8063830cf64e116100d3578063830cf64e146104145780638e45235f1461044457806391d148541461046057806395d89b4114610490576101a9565b806362ffaa451461038457806370a08231146103b45780637205ab22146103e4576101a9565b8063248a9ca31161016657806336568abe1161014057806336568abe14610300578063395093511461031c57806340c10f191461034c5780635f09ffbd14610368576101a9565b8063248a9ca3146102965780632f2ff15d146102c6578063313ce567146102e2576101a9565b806301ffc9a7146101ae57806306cb5b66146101de57806306fdde03146101fa578063095ea7b31461021857806318160ddd1461024857806323b872dd14610266575b600080fd5b6101c860048036038101906101c39190611f22565b6105b5565b6040516101d59190611f6a565b60405180910390f35b6101f860048036038101906101f39190611fe3565b61062f565b005b610202610677565b60405161020f91906120a0565b60405180910390f35b610232600480360381019061022d91906120f8565b610709565b60405161023f9190611f6a565b60405180910390f35b61025061072c565b60405161025d9190612147565b60405180910390f35b610280600480360381019061027b9190612162565b610736565b60405161028d9190611f6a565b60405180910390f35b6102b060048036038101906102ab91906121eb565b610765565b6040516102bd9190612227565b60405180910390f35b6102e060048036038101906102db9190612242565b610785565b005b6102ea6107a6565b6040516102f7919061229e565b60405180910390f35b61031a60048036038101906103159190612242565b6107af565b005b610336600480360381019061033191906120f8565b610832565b6040516103439190611f6a565b60405180910390f35b610366600480360381019061036191906120f8565b610869565b005b610382600480360381019061037d91906123ee565b6108a2565b005b61039e6004803603810190610399919061244a565b610961565b6040516103ab9190611f6a565b60405180910390f35b6103ce60048036038101906103c99190611fe3565b610a0a565b6040516103db9190612147565b60405180910390f35b6103fe60048036038101906103f99190612493565b610a52565b60405161040b9190612147565b60405180910390f35b61042e60048036038101906104299190611fe3565b610a8d565b60405161043b91906124fe565b60405180910390f35b61045e60048036038101906104599190612519565b610ac0565b005b61047a60048036038101906104759190612242565b610b50565b6040516104879190611f6a565b60405180910390f35b610498610bbb565b6040516104a591906120a0565b60405180910390f35b6104b6610c4d565b6040516104c39190612227565b60405180910390f35b6104d4610c54565b6040516104e2929190612665565b60405180910390f35b610505600480360381019061050091906120f8565b610e00565b6040516105129190611f6a565b60405180910390f35b610535600480360381019061053091906120f8565b610e77565b6040516105429190611f6a565b60405180910390f35b610553610e9a565b6040516105609190612227565b60405180910390f35b610583600480360381019061057e9190612242565b610ebe565b005b61059f600480360381019061059a9190612519565b610edf565b6040516105ac9190612147565b60405180910390f35b60007f7965db0b000000000000000000000000000000000000000000000000000000007bffffffffffffffffffffffffffffffffffffffffffffffffffffffff1916827bffffffffffffffffffffffffffffffffffffffffffffffffffffffff19161480610628575061062782610f66565b5b9050919050565b600660009054906101000a90505061064a6000801b82610fd0565b6106747f9f2df0fed2c77648de5860a4cc508cd0818c85b8b8a1ab4ceeef8d981c8956a682610fd0565b50565b606060038054610686906126cb565b80601f01602080910402602001604051908101604052809291908181526020018280546106b2906126cb565b80156106ff5780601f106106d4576101008083540402835291602001916106ff565b820191906000526020600020905b8154815290600101906020018083116106e257829003601f168201915b5050505050905090565b6000806107146110b1565b90506107218185856110b9565b600191505092915050565b6000600254905090565b6000806107416110b1565b905061074e858285611282565b61075985858561130e565b60019150509392505050565b600060056000838152602001908152602001600020600101549050919050565b61078e82610765565b61079781611584565b6107a18383610fd0565b505050565b60006002905090565b6107b76110b1565b73ffffffffffffffffffffffffffffffffffffffff168173ffffffffffffffffffffffffffffffffffffffff1614610824576040517f08c379a000000000000000000000000000000000000000000000000000000000815260040161081b9061276e565b60405180910390fd5b61082e8282611598565b5050565b60008061083d6110b1565b905061085e81858561084f8589610edf565b61085991906127bd565b6110b9565b600191505092915050565b7f9f2df0fed2c77648de5860a4cc508cd0818c85b8b8a1ab4ceeef8d981c8956a661089381611584565b61089d838361167a565b505050565b6108b36108ad6110b1565b836117d0565b81600960006108c06110b1565b73ffffffffffffffffffffffffffffffffffffffff1673ffffffffffffffffffffffffffffffffffffffff16815260200190815260200160002082604051610908919061282d565b90815260200160405180910390208190555061092381610961565b61095d5760078190806001815401808255809150506001900390600052602060002001600090919091909150908161095b91906129f0565b505b5050565b6000805b6007805490508110156109ff5782604051602001610983919061282d565b60405160208183030381529060405280519060200120600782815481106109ad576109ac612ac2565b5b906000526020600020016040516020016109c79190612b74565b60405160208183030381529060405280519060200120036109ec576001915050610a05565b80806109f790612b8b565b915050610965565b50600090505b919050565b60008060008373ffffffffffffffffffffffffffffffffffffffff1673ffffffffffffffffffffffffffffffffffffffff168152602001908152602001600020549050919050565b600960205281600052604060002081805160208101820180518482526020830160208501208183528095505050505050600091509150505481565b60086020528060005260406000206000915054906101000a900473ffffffffffffffffffffffffffffffffffffffff1681565b600660009054906101000a90505080600860008473ffffffffffffffffffffffffffffffffffffffff1673ffffffffffffffffffffffffffffffffffffffff16815260200190815260200160002060006101000a81548173ffffffffffffffffffffffffffffffffffffffff021916908373ffffffffffffffffffffffffffffffffffffffff1602179055505050565b60006005600084815260200190815260200160002060000160008373ffffffffffffffffffffffffffffffffffffffff1673ffffffffffffffffffffffffffffffffffffffff16815260200190815260200160002060009054906101000a900460ff16905092915050565b606060048054610bca906126cb565b80601f0160208091040260200160405190810160405280929190818152602001828054610bf6906126cb565b8015610c435780601f10610c1857610100808354040283529160200191610c43565b820191906000526020600020905b815481529060010190602001808311610c2657829003601f168201915b5050505050905090565b6000801b81565b606080606060005b600780549050811015610d205781610ceb600960003373ffffffffffffffffffffffffffffffffffffffff1673ffffffffffffffffffffffffffffffffffffffff16815260200190815260200160002060078481548110610cc057610cbf612ac2565b5b90600052602060002001604051610cd79190612b74565b90815260200160405180910390205461199d565b604051602001610cfc929190612c40565b60405160208183030381529060405291508080610d1890612b8b565b915050610c5c565b5060078181805480602002602001604051908101604052809291908181526020016000905b82821015610df1578382906000526020600020018054610d64906126cb565b80601f0160208091040260200160405190810160405280929190818152602001828054610d90906126cb565b8015610ddd5780601f10610db257610100808354040283529160200191610ddd565b820191906000526020600020905b815481529060010190602001808311610dc057829003601f168201915b505050505081526020019060010190610d45565b50505050915092509250509091565b600080610e0b6110b1565b90506000610e198286610edf565b905083811015610e5e576040517f08c379a0000000000000000000000000000000000000000000000000000000008152600401610e5590612ce5565b60405180910390fd5b610e6b82868684036110b9565b60019250505092915050565b600080610e826110b1565b9050610e8f81858561130e565b600191505092915050565b7f9f2df0fed2c77648de5860a4cc508cd0818c85b8b8a1ab4ceeef8d981c8956a681565b610ec782610765565b610ed081611584565b610eda8383611598565b505050565b6000600160008473ffffffffffffffffffffffffffffffffffffffff1673ffffffffffffffffffffffffffffffffffffffff16815260200190815260200160002060008373ffffffffffffffffffffffffffffffffffffffff1673ffffffffffffffffffffffffffffffffffffffff16815260200190815260200160002054905092915050565b60007f01ffc9a7000000000000000000000000000000000000000000000000000000007bffffffffffffffffffffffffffffffffffffffffffffffffffffffff1916827bffffffffffffffffffffffffffffffffffffffffffffffffffffffff1916149050919050565b610fda8282610b50565b6110ad5760016005600084815260200190815260200160002060000160008373ffffffffffffffffffffffffffffffffffffffff1673ffffffffffffffffffffffffffffffffffffffff16815260200190815260200160002060006101000a81548160ff0219169083151502179055506110526110b1565b73ffffffffffffffffffffffffffffffffffffffff168173ffffffffffffffffffffffffffffffffffffffff16837f2f8788117e7eff1d82e926ec794901d17c78024a50270940304540a733656f0d60405160405180910390a45b5050565b600033905090565b600073ffffffffffffffffffffffffffffffffffffffff168373ffffffffffffffffffffffffffffffffffffffff1603611128576040517f08c379a000000000000000000000000000000000000000000000000000000000815260040161111f90612d77565b60405180910390fd5b600073ffffffffffffffffffffffffffffffffffffffff168273ffffffffffffffffffffffffffffffffffffffff1603611197576040517f08c379a000000000000000000000000000000000000000000000000000000000815260040161118e90612e09565b60405180910390fd5b80600160008573ffffffffffffffffffffffffffffffffffffffff1673ffffffffffffffffffffffffffffffffffffffff16815260200190815260200160002060008473ffffffffffffffffffffffffffffffffffffffff1673ffffffffffffffffffffffffffffffffffffffff168152602001908152602001600020819055508173ffffffffffffffffffffffffffffffffffffffff168373ffffffffffffffffffffffffffffffffffffffff167f8c5be1e5ebec7d5bd14f71427d1e84f3dd0314c0f7b2291e5b200ac8c7c3b925836040516112759190612147565b60405180910390a3505050565b600061128e8484610edf565b90507fffffffffffffffffffffffffffffffffffffffffffffffffffffffffffffffff811461130857818110156112fa576040517f08c379a00000000000000000000000000000000000000000000000000000000081526004016112f190612e75565b60405180910390fd5b61130784848484036110b9565b5b50505050565b600073ffffffffffffffffffffffffffffffffffffffff168373ffffffffffffffffffffffffffffffffffffffff160361137d576040517f08c379a000000000000000000000000000000000000000000000000000000000815260040161137490612f07565b60405180910390fd5b600073ffffffffffffffffffffffffffffffffffffffff168273ffffffffffffffffffffffffffffffffffffffff16036113ec576040517f08c379a00000000000000000000000000000000000000000000000000000000081526004016113e390612f99565b60405180910390fd5b6113f7838383611a6b565b60008060008573ffffffffffffffffffffffffffffffffffffffff1673ffffffffffffffffffffffffffffffffffffffff1681526020019081526020016000205490508181101561147d576040517f08c379a00000000000000000000000000000000000000000000000000000000081526004016114749061302b565b60405180910390fd5b8181036000808673ffffffffffffffffffffffffffffffffffffffff1673ffffffffffffffffffffffffffffffffffffffff16815260200190815260200160002081905550816000808573ffffffffffffffffffffffffffffffffffffffff1673ffffffffffffffffffffffffffffffffffffffff168152602001908152602001600020600082825401925050819055508273ffffffffffffffffffffffffffffffffffffffff168473ffffffffffffffffffffffffffffffffffffffff167fddf252ad1be2c89b69c2b068fc378daa952ba7f163c4a11628f55a4df523b3ef8460405161156b9190612147565b60405180910390a361157e848484611a70565b50505050565b611595816115906110b1565b611a75565b50565b6115a28282610b50565b156116765760006005600084815260200190815260200160002060000160008373ffffffffffffffffffffffffffffffffffffffff1673ffffffffffffffffffffffffffffffffffffffff16815260200190815260200160002060006101000a81548160ff02191690831515021790555061161b6110b1565b73ffffffffffffffffffffffffffffffffffffffff168173ffffffffffffffffffffffffffffffffffffffff16837ff6391f5c32d9c69d2a47ea670b442974b53935d1edc7fd64eb21e047a839171b60405160405180910390a45b5050565b600073ffffffffffffffffffffffffffffffffffffffff168273ffffffffffffffffffffffffffffffffffffffff16036116e9576040517f08c379a00000000000000000000000000000000000000000000000000000000081526004016116e090613097565b60405180910390fd5b6116f560008383611a6b565b806002600082825461170791906127bd565b92505081905550806000808473ffffffffffffffffffffffffffffffffffffffff1673ffffffffffffffffffffffffffffffffffffffff168152602001908152602001600020600082825401925050819055508173ffffffffffffffffffffffffffffffffffffffff16600073ffffffffffffffffffffffffffffffffffffffff167fddf252ad1be2c89b69c2b068fc378daa952ba7f163c4a11628f55a4df523b3ef836040516117b89190612147565b60405180910390a36117cc60008383611a70565b5050565b600073ffffffffffffffffffffffffffffffffffffffff168273ffffffffffffffffffffffffffffffffffffffff160361183f576040517f08c379a000000000000000000000000000000000000000000000000000000000815260040161183690613129565b60405180910390fd5b61184b82600083611a6b565b60008060008473ffffffffffffffffffffffffffffffffffffffff1673ffffffffffffffffffffffffffffffffffffffff168152602001908152602001600020549050818110156118d1576040517f08c379a00000000000000000000000000000000000000000000000000000000081526004016118c8906131bb565b60405180910390fd5b8181036000808573ffffffffffffffffffffffffffffffffffffffff1673ffffffffffffffffffffffffffffffffffffffff1681526020019081526020016000208190555081600260008282540392505081905550600073ffffffffffffffffffffffffffffffffffffffff168373ffffffffffffffffffffffffffffffffffffffff167fddf252ad1be2c89b69c2b068fc378daa952ba7f163c4a11628f55a4df523b3ef846040516119849190612147565b60405180910390a361199883600084611a70565b505050565b6060600060016119ac84611afa565b01905060008167ffffffffffffffff8111156119cb576119ca6122c3565b5b6040519080825280601f01601f1916602001820160405280156119fd5781602001600182028036833780820191505090505b509050600082602001820190505b600115611a60578080600190039150507f3031323334353637383961626364656600000000000000000000000000000000600a86061a8153600a8581611a5457611a536131db565b5b04945060008503611a0b575b819350505050919050565b505050565b505050565b611a7f8282610b50565b611af657611a8c81611c4d565b611a9a8360001c6020611c7a565b604051602001611aab9291906132a2565b6040516020818303038152906040526040517f08c379a0000000000000000000000000000000000000000000000000000000008152600401611aed91906120a0565b60405180910390fd5b5050565b600080600090507a184f03e93ff9f4daa797ed6e38ed64bf6a1f0100000000000000008310611b58577a184f03e93ff9f4daa797ed6e38ed64bf6a1f0100000000000000008381611b4e57611b4d6131db565b5b0492506040810190505b6d04ee2d6d415b85acef81000000008310611b95576d04ee2d6d415b85acef81000000008381611b8b57611b8a6131db565b5b0492506020810190505b662386f26fc100008310611bc457662386f26fc100008381611bba57611bb96131db565b5b0492506010810190505b6305f5e1008310611bed576305f5e1008381611be357611be26131db565b5b0492506008810190505b6127108310611c12576127108381611c0857611c076131db565b5b0492506004810190505b60648310611c355760648381611c2b57611c2a6131db565b5b0492506002810190505b600a8310611c44576001810190505b80915050919050565b6060611c738273ffffffffffffffffffffffffffffffffffffffff16601460ff16611c7a565b9050919050565b606060006002836002611c8d91906132dc565b611c9791906127bd565b67ffffffffffffffff811115611cb057611caf6122c3565b5b6040519080825280601f01601f191660200182016040528015611ce25781602001600182028036833780820191505090505b5090507f300000000000000000000000000000000000000000000000000000000000000081600081518110611d1a57611d19612ac2565b5b60200101907effffffffffffffffffffffffffffffffffffffffffffffffffffffffffffff1916908160001a9053507f780000000000000000000000000000000000000000000000000000000000000081600181518110611d7e57611d7d612ac2565b5b60200101907effffffffffffffffffffffffffffffffffffffffffffffffffffffffffffff1916908160001a90535060006001846002611dbe91906132dc565b611dc891906127bd565b90505b6001811115611e68577f3031323334353637383961626364656600000000000000000000000000000000600f861660108110611e0a57611e09612ac2565b5b1a60f81b828281518110611e2157611e20612ac2565b5b60200101907effffffffffffffffffffffffffffffffffffffffffffffffffffffffffffff1916908160001a905350600485901c945080611e619061331e565b9050611dcb565b5060008414611eac576040517f08c379a0000000000000000000000000000000000000000000000000000000008152600401611ea390613393565b60405180910390fd5b8091505092915050565b6000604051905090565b600080fd5b600080fd5b60007fffffffff0000000000000000000000000000000000000000000000000000000082169050919050565b611eff81611eca565b8114611f0a57600080fd5b50565b600081359050611f1c81611ef6565b92915050565b600060208284031215611f3857611f37611ec0565b5b6000611f4684828501611f0d565b91505092915050565b60008115159050919050565b611f6481611f4f565b82525050565b6000602082019050611f7f6000830184611f5b565b92915050565b600073ffffffffffffffffffffffffffffffffffffffff82169050919050565b6000611fb082611f85565b9050919050565b611fc081611fa5565b8114611fcb57600080fd5b50565b600081359050611fdd81611fb7565b92915050565b600060208284031215611ff957611ff8611ec0565b5b600061200784828501611fce565b91505092915050565b600081519050919050565b600082825260208201905092915050565b60005b8381101561204a57808201518184015260208101905061202f565b60008484015250505050565b6000601f19601f8301169050919050565b600061207282612010565b61207c818561201b565b935061208c81856020860161202c565b61209581612056565b840191505092915050565b600060208201905081810360008301526120ba8184612067565b905092915050565b6000819050919050565b6120d5816120c2565b81146120e057600080fd5b50565b6000813590506120f2816120cc565b92915050565b6000806040838503121561210f5761210e611ec0565b5b600061211d85828601611fce565b925050602061212e858286016120e3565b9150509250929050565b612141816120c2565b82525050565b600060208201905061215c6000830184612138565b92915050565b60008060006060848603121561217b5761217a611ec0565b5b600061218986828701611fce565b935050602061219a86828701611fce565b92505060406121ab868287016120e3565b9150509250925092565b6000819050919050565b6121c8816121b5565b81146121d357600080fd5b50565b6000813590506121e5816121bf565b92915050565b60006020828403121561220157612200611ec0565b5b600061220f848285016121d6565b91505092915050565b612221816121b5565b82525050565b600060208201905061223c6000830184612218565b92915050565b6000806040838503121561225957612258611ec0565b5b6000612267858286016121d6565b925050602061227885828601611fce565b9150509250929050565b600060ff82169050919050565b61229881612282565b82525050565b60006020820190506122b3600083018461228f565b92915050565b600080fd5b600080fd5b7f4e487b7100000000000000000000000000000000000000000000000000000000600052604160045260246000fd5b6122fb82612056565b810181811067ffffffffffffffff8211171561231a576123196122c3565b5b80604052505050565b600061232d611eb6565b905061233982826122f2565b919050565b600067ffffffffffffffff821115612359576123586122c3565b5b61236282612056565b9050602081019050919050565b82818337600083830152505050565b600061239161238c8461233e565b612323565b9050828152602081018484840111156123ad576123ac6122be565b5b6123b884828561236f565b509392505050565b600082601f8301126123d5576123d46122b9565b5b81356123e584826020860161237e565b91505092915050565b6000806040838503121561240557612404611ec0565b5b6000612413858286016120e3565b925050602083013567ffffffffffffffff81111561243457612433611ec5565b5b612440858286016123c0565b9150509250929050565b6000602082840312156124605761245f611ec0565b5b600082013567ffffffffffffffff81111561247e5761247d611ec5565b5b61248a848285016123c0565b91505092915050565b600080604083850312156124aa576124a9611ec0565b5b60006124b885828601611fce565b925050602083013567ffffffffffffffff8111156124d9576124d8611ec5565b5b6124e5858286016123c0565b9150509250929050565b6124f881611fa5565b82525050565b600060208201905061251360008301846124ef565b92915050565b600080604083850312156125305761252f611ec0565b5b600061253e85828601611fce565b925050602061254f85828601611fce565b9150509250929050565b600081519050919050565b600082825260208201905092915050565b6000819050602082019050919050565b600082825260208201905092915050565b60006125a182612010565b6125ab8185612585565b93506125bb81856020860161202c565b6125c481612056565b840191505092915050565b60006125db8383612596565b905092915050565b6000602082019050919050565b60006125fb82612559565b6126058185612564565b93508360208202850161261785612575565b8060005b85811015612653578484038952815161263485826125cf565b945061263f836125e3565b925060208a0199505060018101905061261b565b50829750879550505050505092915050565b6000604082019050818103600083015261267f81856125f0565b905081810360208301526126938184612067565b90509392505050565b7f4e487b7100000000000000000000000000000000000000000000000000000000600052602260045260246000fd5b600060028204905060018216806126e357607f821691505b6020821081036126f6576126f561269c565b5b50919050565b7f416363657373436f6e74726f6c3a2063616e206f6e6c792072656e6f756e636560008201527f20726f6c657320666f722073656c660000000000000000000000000000000000602082015250565b6000612758602f8361201b565b9150612763826126fc565b604082019050919050565b600060208201905081810360008301526127878161274b565b9050919050565b7f4e487b7100000000000000000000000000000000000000000000000000000000600052601160045260246000fd5b60006127c8826120c2565b91506127d3836120c2565b92508282019050808211156127eb576127ea61278e565b5b92915050565b600081905092915050565b600061280782612010565b61281181856127f1565b935061282181856020860161202c565b80840191505092915050565b600061283982846127fc565b915081905092915050565b60008190508160005260206000209050919050565b60006020601f8301049050919050565b600082821b905092915050565b6000600883026128a67fffffffffffffffffffffffffffffffffffffffffffffffffffffffffffffffff82612869565b6128b08683612869565b95508019841693508086168417925050509392505050565b6000819050919050565b60006128ed6128e86128e3846120c2565b6128c8565b6120c2565b9050919050565b6000819050919050565b612907836128d2565b61291b612913826128f4565b848454612876565b825550505050565b600090565b612930612923565b61293b8184846128fe565b505050565b5b8181101561295f57612954600082612928565b600181019050612941565b5050565b601f8211156129a45761297581612844565b61297e84612859565b8101602085101561298d578190505b6129a161299985612859565b830182612940565b50505b505050565b600082821c905092915050565b60006129c7600019846008026129a9565b1980831691505092915050565b60006129e083836129b6565b9150826002028217905092915050565b6129f982612010565b67ffffffffffffffff811115612a1257612a116122c3565b5b612a1c82546126cb565b612a27828285612963565b600060209050601f831160018114612a5a5760008415612a48578287015190505b612a5285826129d4565b865550612aba565b601f198416612a6886612844565b60005b82811015612a9057848901518255600182019150602085019450602081019050612a6b565b86831015612aad5784890151612aa9601f8916826129b6565b8355505b6001600288020188555050505b505050505050565b7f4e487b7100000000000000000000000000000000000000000000000000000000600052603260045260246000fd5b60008154612afe816126cb565b612b0881866127f1565b94506001821660008114612b235760018114612b3857612b6b565b60ff1983168652811515820286019350612b6b565b612b4185612844565b60005b83811015612b6357815481890152600182019150602081019050612b44565b838801955050505b50505092915050565b6000612b808284612af1565b915081905092915050565b6000612b96826120c2565b91507fffffffffffffffffffffffffffffffffffffffffffffffffffffffffffffffff8203612bc857612bc761278e565b5b600182019050919050565b600081519050919050565b600081905092915050565b6000612bf482612bd3565b612bfe8185612bde565b9350612c0e81856020860161202c565b80840191505092915050565b7f2c00000000000000000000000000000000000000000000000000000000000000815250565b6000612c4c8285612be9565b9150612c5782612c1a565b600182019150612c678284612be9565b91508190509392505050565b7f45524332303a2064656372656173656420616c6c6f77616e63652062656c6f7760008201527f207a65726f000000000000000000000000000000000000000000000000000000602082015250565b6000612ccf60258361201b565b9150612cda82612c73565b604082019050919050565b60006020820190508181036000830152612cfe81612cc2565b9050919050565b7f45524332303a20617070726f76652066726f6d20746865207a65726f2061646460008201527f7265737300000000000000000000000000000000000000000000000000000000602082015250565b6000612d6160248361201b565b9150612d6c82612d05565b604082019050919050565b60006020820190508181036000830152612d9081612d54565b9050919050565b7f45524332303a20617070726f766520746f20746865207a65726f20616464726560008201527f7373000000000000000000000000000000000000000000000000000000000000602082015250565b6000612df360228361201b565b9150612dfe82612d97565b604082019050919050565b60006020820190508181036000830152612e2281612de6565b9050919050565b7f45524332303a20696e73756666696369656e7420616c6c6f77616e6365000000600082015250565b6000612e5f601d8361201b565b9150612e6a82612e29565b602082019050919050565b60006020820190508181036000830152612e8e81612e52565b9050919050565b7f45524332303a207472616e736665722066726f6d20746865207a65726f20616460008201527f6472657373000000000000000000000000000000000000000000000000000000602082015250565b6000612ef160258361201b565b9150612efc82612e95565b604082019050919050565b60006020820190508181036000830152612f2081612ee4565b9050919050565b7f45524332303a207472616e7366657220746f20746865207a65726f206164647260008201527f6573730000000000000000000000000000000000000000000000000000000000602082015250565b6000612f8360238361201b565b9150612f8e82612f27565b604082019050919050565b60006020820190508181036000830152612fb281612f76565b9050919050565b7f45524332303a207472616e7366657220616d6f756e742065786365656473206260008201527f616c616e63650000000000000000000000000000000000000000000000000000602082015250565b600061301560268361201b565b915061302082612fb9565b604082019050919050565b6000602082019050818103600083015261304481613008565b9050919050565b7f45524332303a206d696e7420746f20746865207a65726f206164647265737300600082015250565b6000613081601f8361201b565b915061308c8261304b565b602082019050919050565b600060208201905081810360008301526130b081613074565b9050919050565b7f45524332303a206275726e2066726f6d20746865207a65726f2061646472657360008201527f7300000000000000000000000000000000000000000000000000000000000000602082015250565b600061311360218361201b565b915061311e826130b7565b604082019050919050565b6000602082019050818103600083015261314281613106565b9050919050565b7f45524332303a206275726e20616d6f756e7420657863656564732062616c616e60008201527f6365000000000000000000000000000000000000000000000000000000000000602082015250565b60006131a560228361201b565b91506131b082613149565b604082019050919050565b600060208201905081810360008301526131d481613198565b9050919050565b7f4e487b7100000000000000000000000000000000000000000000000000000000600052601260045260246000fd5b7f416363657373436f6e74726f6c3a206163636f756e7420000000000000000000600082015250565b60006132406017836127f1565b915061324b8261320a565b601782019050919050565b7f206973206d697373696e6720726f6c6520000000000000000000000000000000600082015250565b600061328c6011836127f1565b915061329782613256565b601182019050919050565b60006132ad82613233565b91506132b982856127fc565b91506132c48261327f565b91506132d082846127fc565b91508190509392505050565b60006132e7826120c2565b91506132f2836120c2565b9250828202613300816120c2565b915082820484148315176133175761331661278e565b5b5092915050565b6000613329826120c2565b91506000820361333c5761333b61278e565b5b600182039050919050565b7f537472696e67733a20686578206c656e67746820696e73756666696369656e74600082015250565b600061337d60208361201b565b915061338882613347565b602082019050919050565b600060208201905081810360008301526133ac81613370565b905091905056fea2646970667358221220f46e8d0830f47c1aab8ec1ee72b2969e15e2017aa4024c9580269b0beb64290464736f6c63430008130033",
  "immutableReferences": {},
  "source": "// SPDX-License-Identifier: MIT\r\npragma solidity 0.8.19;\r\n\r\nimport \"@openzeppelin/contracts/utils/Strings.sol\";\r\nimport \"@openzeppelin/contracts/token/ERC20/ERC20.sol\";\r\nimport \"@openzeppelin/contracts/access/AccessControl.sol\";\r\n\r\n\r\ncontract OffSetCarbonToken is ERC20, AccessControl {\r\n    address owner; // variable to store contract owner\r\n    string[] dates; // array to store if a token has been retired\r\n    mapping(address => address) public certifiersContracts; // mapping to store certifiers contracts and yours owners\r\n    bytes32 public constant MINTER_ROLE = keccak256(\"MINTER_ROLE\"); // variable to store minter role\r\n    mapping(address => mapping(string => uint)) public userTotalOffSetDate; // mapping to store the total amount of tokens retired by a user per date\r\n\r\n    constructor() ERC20(\"OffSetCarbonToken\", \"OSCT\") {\r\n        owner == msg.sender;\r\n    }\r\n\r\n    // modifier to restrict access to the owner\r\n    modifier onlyOwner() {\r\n        msg.sender == owner;\r\n        _;\r\n    }\r\n\r\n    // function to check if a date exists in the array\r\n    function inspectDate(string memory date) public view returns (bool) {\r\n        for (uint i; i < dates.length; i++) {\r\n            if (\r\n                keccak256(abi.encodePacked((dates[i]))) ==\r\n                keccak256(abi.encodePacked((date)))\r\n            ) {\r\n                return true;\r\n            }\r\n        }\r\n        return false;\r\n    }\r\n\r\n    // function to get the total amount of tokens retired by a user per date\r\n    function historyUsersRetires()\r\n        public\r\n        view\r\n        returns (string[] memory, string memory)\r\n    {\r\n        bytes memory val;\r\n        for (uint i = 0; i < dates.length; i++) {\r\n            val = bytes.concat(\r\n                val,\r\n                \",\",\r\n                bytes(\r\n                    Strings.toString(userTotalOffSetDate[msg.sender][dates[i]])\r\n                )\r\n            );\r\n        }\r\n        return (dates, string(val));\r\n    }\r\n\r\n    // function to add a new certifier\r\n    function newCertifier(\r\n        address _certifierOwners,\r\n        address _certifierContract\r\n    ) public onlyOwner {\r\n        certifiersContracts[_certifierOwners] = _certifierContract;\r\n    }\r\n\r\n    // function to update contract controller\r\n    function updateController(address _newController) public onlyOwner {\r\n        _grantRole(DEFAULT_ADMIN_ROLE, _newController);\r\n        _grantRole(MINTER_ROLE, _newController);\r\n    }\r\n\r\n    // function to mint tokens if the user has a role\r\n    function mint(address to, uint256 amount) public onlyRole(MINTER_ROLE) {\r\n        _mint(to, amount);\r\n    }\r\n\r\n    // function to retire OffSetCarbonTokens and store this transaction information\r\n    function retire(uint256 amount, string memory date) public virtual {\r\n        _burn(_msgSender(), amount);\r\n        userTotalOffSetDate[_msgSender()][date] = amount;\r\n        if (!inspectDate(date)) {\r\n            dates.push(date);\r\n        }\r\n    }\r\n\r\n    // function to override token decimals\r\n    function decimals() public pure override returns (uint8) {\r\n        return 2;\r\n    }\r\n}",
  "sourcePath": "C:\\Users\\Inteli\\repos\\blockchain\\contracts\\OffsetCarbonToken.sol",
  "compiler": {
    "name": "solc",
    "version": "0.8.19+commit.7dd6d404.Emscripten.clang"
  },
  "schemaVersion": "3.4.10",
  "updatedAt": "2023-06-09T17:52:25.979Z",
  "devdoc": {
    "events": {
      "Approval(address,address,uint256)": {
        "details": "Emitted when the allowance of a `spender` for an `owner` is set by a call to {approve}. `value` is the new allowance."
      },
      "RoleAdminChanged(bytes32,bytes32,bytes32)": {
        "details": "Emitted when `newAdminRole` is set as ``role``'s admin role, replacing `previousAdminRole` `DEFAULT_ADMIN_ROLE` is the starting admin for all roles, despite {RoleAdminChanged} not being emitted signaling this. _Available since v3.1._"
      },
      "RoleGranted(bytes32,address,address)": {
        "details": "Emitted when `account` is granted `role`. `sender` is the account that originated the contract call, an admin role bearer except when using {AccessControl-_setupRole}."
      },
      "RoleRevoked(bytes32,address,address)": {
        "details": "Emitted when `account` is revoked `role`. `sender` is the account that originated the contract call:   - if using `revokeRole`, it is the admin role bearer   - if using `renounceRole`, it is the role bearer (i.e. `account`)"
      },
      "Transfer(address,address,uint256)": {
        "details": "Emitted when `value` tokens are moved from one account (`from`) to another (`to`). Note that `value` may be zero."
      }
    },
    "kind": "dev",
    "methods": {
      "allowance(address,address)": {
        "details": "See {IERC20-allowance}."
      },
      "approve(address,uint256)": {
        "details": "See {IERC20-approve}. NOTE: If `amount` is the maximum `uint256`, the allowance is not updated on `transferFrom`. This is semantically equivalent to an infinite approval. Requirements: - `spender` cannot be the zero address."
      },
      "balanceOf(address)": {
        "details": "See {IERC20-balanceOf}."
      },
      "decimals()": {
        "details": "Returns the number of decimals used to get its user representation. For example, if `decimals` equals `2`, a balance of `505` tokens should be displayed to a user as `5.05` (`505 / 10 ** 2`). Tokens usually opt for a value of 18, imitating the relationship between Ether and Wei. This is the default value returned by this function, unless it's overridden. NOTE: This information is only used for _display_ purposes: it in no way affects any of the arithmetic of the contract, including {IERC20-balanceOf} and {IERC20-transfer}."
      },
      "decreaseAllowance(address,uint256)": {
        "details": "Atomically decreases the allowance granted to `spender` by the caller. This is an alternative to {approve} that can be used as a mitigation for problems described in {IERC20-approve}. Emits an {Approval} event indicating the updated allowance. Requirements: - `spender` cannot be the zero address. - `spender` must have allowance for the caller of at least `subtractedValue`."
      },
      "getRoleAdmin(bytes32)": {
        "details": "Returns the admin role that controls `role`. See {grantRole} and {revokeRole}. To change a role's admin, use {_setRoleAdmin}."
      },
      "grantRole(bytes32,address)": {
        "details": "Grants `role` to `account`. If `account` had not been already granted `role`, emits a {RoleGranted} event. Requirements: - the caller must have ``role``'s admin role. May emit a {RoleGranted} event."
      },
      "hasRole(bytes32,address)": {
        "details": "Returns `true` if `account` has been granted `role`."
      },
      "increaseAllowance(address,uint256)": {
        "details": "Atomically increases the allowance granted to `spender` by the caller. This is an alternative to {approve} that can be used as a mitigation for problems described in {IERC20-approve}. Emits an {Approval} event indicating the updated allowance. Requirements: - `spender` cannot be the zero address."
      },
      "name()": {
        "details": "Returns the name of the token."
      },
      "renounceRole(bytes32,address)": {
        "details": "Revokes `role` from the calling account. Roles are often managed via {grantRole} and {revokeRole}: this function's purpose is to provide a mechanism for accounts to lose their privileges if they are compromised (such as when a trusted device is misplaced). If the calling account had been revoked `role`, emits a {RoleRevoked} event. Requirements: - the caller must be `account`. May emit a {RoleRevoked} event."
      },
      "revokeRole(bytes32,address)": {
        "details": "Revokes `role` from `account`. If `account` had been granted `role`, emits a {RoleRevoked} event. Requirements: - the caller must have ``role``'s admin role. May emit a {RoleRevoked} event."
      },
      "supportsInterface(bytes4)": {
        "details": "See {IERC165-supportsInterface}."
      },
      "symbol()": {
        "details": "Returns the symbol of the token, usually a shorter version of the name."
      },
      "totalSupply()": {
        "details": "See {IERC20-totalSupply}."
      },
      "transfer(address,uint256)": {
        "details": "See {IERC20-transfer}. Requirements: - `to` cannot be the zero address. - the caller must have a balance of at least `amount`."
      },
      "transferFrom(address,address,uint256)": {
        "details": "See {IERC20-transferFrom}. Emits an {Approval} event indicating the updated allowance. This is not required by the EIP. See the note at the beginning of {ERC20}. NOTE: Does not update the allowance if the current allowance is the maximum `uint256`. Requirements: - `from` and `to` cannot be the zero address. - `from` must have a balance of at least `amount`. - the caller must have allowance for ``from``'s tokens of at least `amount`."
      }
    },
    "version": 1
  },
  "userdoc": {
    "kind": "user",
    "methods": {},
    "version": 1
  }
}